:020000040800F2
:10000000901F00209D0100086D320008C72C0008D9
:1000100000000000000000000000000000000000E0
:10002000000000000000000000000000F93500089A
:10003000000000000000000071320008FD360008DA
:10004000AF01000800000000AF010008AF01000888
:10005000AF010008AF010008AF0100083515000826
:100060000000000085140008AF010008AF0100087F
:10007000AF010008AF010008AF0100080000000058
:10008000AF0100080000000000000000AF01000800
:1000900000000000AF01000891370008AF01000820
:1000A000AF010008AF010008AF010008AF01000870
:1000B000AF01000800000000000000000000000088
:1000C00000F002F800F03EF812A030C808382418FA
:1000D0002D18AC4201D100F035F80FCCA246AB464A
:1000E0000CA730CF2D1B083F3F197C427F1E544484
:1000F0002D090426F441641EAC4201D300F022F81D
:100100000126334200D0FB1A3343984754465D46DC
:10011000DFE70000C0550000E05500007047000018
:100120000023002400250026103A01D378C1FBD813
:10013000520700D330C100D50B6070471FB51FBDFB
:1001400010B510BD00F0E2F91146FFF7F7FF03F01C
:1001500087FF00F0FAF903B4FFF7F2FF03BC00F0E9
:1001600001FA000070B505460C46164602E00FCCB9
:100170000FC5103E102EFAD2082E02D303CC03C5B1
:10018000083E042E07D301CC01C5361F03E02178B9
:100190002970641C6D1C761EF9D270BD074880471B
:1001A00007480047FEE7FEE7FEE7FEE7FEE7FEE75B
:1001B00004480549054A064B704700008D37000882
:1001C000C100000890190020901F0020901B002003
:1001D000901B0020034610B50B439B070FD1042A48
:1001E0000DD308C810C9121FA342F8D018BA21BAFB
:1001F000884201D9012010BD0020C04310BD002A53
:1002000003D0D30703D0521C07E0002010BD0378B1
:100210000C78401C491C1B1B07D103780C78401C30
:10022000491C1B1B01D1921EF1D1184610BDF8B517
:10023000042A2CD3830712D00B78491C0370401C6E
:10024000521E83070BD00B78491C0370401C521EB2
:10025000830704D00B78491C0370401C521E8B0787
:100260009B0F05D0C91ADF002023DE1B08C90AE056
:10027000FFF778FFF8BD1D4608C9FD401C46B44095
:100280002C4310C0121F042AF5D2F308C91A521EBB
:10029000F0D40B78491C0370401C521EEAD40B7832
:1002A000491C0370401C012AE4D409780170F8BD90
:1002B00001E004C0091F0429FBD28B0701D502808D
:1002C000801CC90700D00270704700290BD0C307FB
:1002D00002D00270401C491E022904D3830702D5B4
:1002E0000280801C891EE3E70022EEE70022DFE7A0
:1002F000002203098B422CD3030A8B4211D3002323
:100300009C464EE003460B433CD4002243088B42FC
:1003100031D303098B421CD3030A8B4201D3944689
:100320003FE0C3098B4201D3CB01C01A524183097C
:100330008B4201D38B01C01A524143098B4201D336
:100340004B01C01A524103098B4201D30B01C01A61
:100350005241C3088B4201D3CB00C01A52418308DB
:100360008B4201D38B00C01A524143088B4201D308
:100370004B00C01A5241411A00D201465241104668
:1003800070475DE0CA0F00D04942031000D34042DD
:1003900053409C46002203098B422DD3030A8B4213
:1003A00012D38901FC2212BA030A8B420CD38901B1
:1003B00092118B4208D3890192118B4204D3890197
:1003C0003AD0921100E08909C3098B4201D3CB01D5
:1003D000C01A524183098B4201D38B01C01A52418A
:1003E00043098B4201D34B01C01A524103098B428E
:1003F00001D30B01C01A5241C3088B4201D3CB0079
:10040000C01A524183088B4201D38B00C01A52415B
:10041000D9D243088B4201D34B00C01A5241411A32
:1004200000D201465241104663465B1001D3404260
:10043000002B00D54942704763465B1000D3404211
:1004400001B50549002802DC491C084000E00846C7
:10045000C046C04602BD00BFFFFFFF7F7047704728
:10046000704710B501469E240002CA15A307002A52
:1004700002D01843002A04DBA21A002A0CDDD04067
:1004800010BD1206120E01D140004008A21A03D47A
:10049000D04040420028F3DDFF224800120690427F
:1004A00001D9002010BDC817C043584010BD1F22FD
:1004B000030C02D10F2200041CD0030E01D1000254
:1004C000083A030F01D10001121F830F01D18000F0
:1004D000921E002801DB4000521ED2055118021264
:1004E00051181922904004D3491C002801D1490811
:1004F000490008467047C10FC90700D04042012299
:1005000092071143D3E701218907D0E7754600F030
:1005100025F8AE46050069465346C008C00085462A
:1005200018B020B5FFF744FE60BCB6460026002791
:10053000C0C5C0C5C0C5C0C5C0C5C0C5C0C5C0C593
:10054000403D490849008D46704710B50446C046F5
:10055000C0462046FFF7FFFD10BD00000048704771
:100560007001002001491820ABBEFEE72600020002
:10057000704730B58C180278401C13071B0F01D14F
:100580000378401C120906D10278401C03E005786C
:10059000401C0D70491C5B1EF9D101E00B70491C19
:1005A000521EFBD1A142E6D3002030BD70B50446F7
:1005B00000688168002549071FD58168890704D430
:1005C0008168754A0A401032826001F073FE064667
:1005D00020688068400710D501F06CFE801B03285E
:1005E000F6D3206880684007F2D5A06D1021014342
:1005F000A165E06D01252843E065284670BDC04631
:10060000B0B50146806A836D826D5024234206D0C6
:10061000D20621D4006D426B08469047B0BD01213F
:100620004B021A4382650268D3681B059B0F1FD1DA
:10063000837E002B1CD113681B0719D593685B07B9
:100640000DD40346583354680C25AC435460FF2442
:1006500002341A68A24309E001F0BCF9B0BD826D12
:1006600020231343836503465C33C26D0A431A603B
:1006700001F054F9B0BD80B5806A816D40220A4313
:100680008265C16D04220A43C26501F0A3F980BDF1
:1006900080B5806A01F043F980BD000070B5054661
:1006A0000068816882680024D20726D002221140A7
:1006B00023D1816805220A40012A16D18168364A71
:1006C0000A40911C81600321016001F0F3FD0646A0
:1006D00028688068C00710D001F0ECFD801B03285B
:1006E000F6D328688068C007F2D0A86D10210143B6
:1006F000A965E86D01242043E865204670BDC04629
:10070000F8B505460024009400688168C9071AD12D
:100710008168214A2F32114208D0A86D102101436F
:10072000A965E86D01242043E8650CE081681A4A58
:10073000114001273943816018480068000204D441
:10074000687E01280ED12046F8BD1548006815497D
:10075000FFF7CEFD401C009000980028F0D00098D4
:10076000401EF8E701F0A6FD064628680168C907A3
:10077000E9D18168C90704D18168074A114039432A
:10078000816001F097FD801B0328EED32868006884
:10079000C007EAD1C1E7C046E8FFFF7F0827014054
:1007A00058000020400D0300F8B528490024012519
:1007B00028068862CC622649264F27A3314E204660
:1007C0003A46B04700F0C0FE2F4948602F4930A399
:1007D00020463A46B04703F041F800F0B9FE2A49F6
:1007E000886033A3204629493A46B047284603F09B
:1007F000B5F938A320462549144F164AB04728209A
:100800003D54394800F0A8FE002807D0002037A149
:1008100038A23A4B02F0E4FA00F092FE39466C310D
:1008200031481E2201F06EFA184D0A4E344B204614
:100830002946324602F0D4FA2B203C54FC62314B5C
:1008400020462946324602F0CBFAF8BD5C00002073
:10085000C75600088E5600080A0A2F2F2F2F2F2F59
:100860002F2F2F2F2F2F2F2F2F2F2F2F2F2F2F2F98
:100870002F0A73746172742072756E6E696E672EC2
:100880000A000000E12D0008E00200208056000868
:100890004B657920696E697469616C697A61746904
:1008A0006F6E207375636365656465642E0A00006E
:1008B000544D3136333920696E697469616C697AD7
:1008C0006174696F6E207375636365656465642E1A
:1008D0000A000000544D3136333920706F7765724D
:1008E000206F6E2E0A000000B00700204552523AD9
:1008F000200000001B5B313B33316D0013560008B4
:10090000F9550008CA550008F0B587B04349486852
:10091000896820228A5C019224220292825C067CF1
:10092000087D039008462030037E04930D7A077BF0
:10093000012A0CD128203A49085C072804D8012153
:100940008140C420014202D1022002F055FC042E55
:1009500003D1082002F050FC12E02820304C205C2B
:10096000E9B2042904D1072802D0022800D0CBE044
:10097000F9B2042904D1022802D0072800D0C5E02A
:100980003B4628202649095C0127F80206900520ED
:1009900002070592082900D97AE349007944898839
:1009A00049008F44080010005F007503670078005D
:1009B00016004E0094001A48C06A1A49884200D2B4
:1009C00066E3072064E00498032800D0A8E0012033
:1009D000ABE00499032903D0E9B2032900D02DE14B
:1009E0000F4C2146143114222046FFF720FC012031
:1009F00002F002FC00272078401E062800D947E3B9
:100A00004000C04678448088400087440D004D0176
:100A10005A01670174019801C701C046E002002035
:100A20005C000020B90B0000FD49487DC5194D75DB
:100A3000E8B2FF2800D16BE2642800D26BE2002507
:100A400067E20020F749F84AF8A302F0C9F9FE4D21
:100A500028460C3003F030FE284603F02DFB03F04F
:100A6000C7FF15E30498032800D08CE02920EC4947
:100A7000085C8BE00020FD498874C878488148787C
:100A8000888188788873087A002800D000E30120E4
:100A900002F0B2FBFCE20498032803D0E8B203287A
:100AA00000D0F2E0F14C2146143114222046FFF729
:100AB000BEFB012002F0A0FB0020A17D0E18A67550
:100AC000F0B2FF287ED009287FD300267BE0E748DC
:100AD000008A002800D0DBE20024204603F03EF824
:100AE000E349E44AE5A3204602F07AF9059806991D
:100AF000224601F0D8FBE74800F012FF0121204612
:100B000001F08EFC03F06EFA052023E70020E24995
:100B1000E24AE3A302F064F907202070062019E7F7
:100B2000E8B2032800D0A1E00220D04908720420D6
:100B300002F062FBD04E1836CC4CA078B0726078D0
:100B40000490C0B20A273946FFF7D2FB054630723F
:100B5000E478E0B23946FFF7CBFBF0727D430499AD
:100B6000491B71724743E01B3073C34C20462A3047
:100B7000D64905252A46FFF75AFB75760020F07501
:100B80000120607684E2032E02D1012002F034FBC2
:100B90000024B6480472B84F384603F08DFA384640
:100BA0000C3003F089FDCA48B862CA48F884384658
:100BB00018305021417302217976BC85FC850521CE
:100BC000417665E20826A9488675AB4F0121797602
:100BD00038463430027A0A2A12D1407A0A280FD1D4
:100BE000A248447DE0B20A252946FFF781FB049024
:100BF0004543621B03200390012300210D4609E0B9
:100C0000F87E002800D10A26049602250022164606
:100C1000134603912324002038553C46233460704A
:100C20001837039C7C76FD75B87578753B75FB7439
:100C3000B974BE727A720498387229E2D9B2032963
:100C400000D0B9E0894B19784A1C1A70D2B2052A33
:100C500000D0CBE00222D2439B7D1B1F934200D9E0
:100C6000D4E0881C814908700620CFE0D8B2032860
:100C700000D05FE700208849884A974B02F0B0F81F
:100C800001207A490870062052E70398032800D013
:100C90009EE0764C207D009000207549754A8F4B70
:100CA00002F09EF8012008E77049887DC019887518
:100CB000C1B2FF2900D13DE1092900D23DE1002068
:100CC00039E16A49C87DC619CE75F0B2FF2800D156
:100CD00071E1642800D271E100266DE16349087E6C
:100CE000C5190D76E8B2FF2800D1ACE1642800D226
:100CF000ACE10025A8E15D4A517E380603D0491ECB
:100D0000481E814151765C4B0220587600245C8558
:100D10009C85DC851846183005224276462201293A
:100D2000174600D02746DE7E7A25002E2B4600D0BF
:100D30003B464374012900D188E0144687E04B4AC2
:100D4000907E390603D0401E411E884190764A4C61
:100D50000221617600216185A185E1852146183156
:100D600005224A766423462201281F4600D01746F2
:100D7000E67E7A25002E2C4600D03C464C74002E90
:100D80002C4600D014460C74CC738C73012800D010
:100D90001A46002E00D015464D7379E1380604D06E
:100DA000324AD07E41424141D1763348C18B00293D
:100DB00000D1A4E2017FAFE2039803282B4C00D1BD
:100DC00019E600270198032800D014E6FF4312E635
:100DD0000198032847D1254C207D0090002024490C
:100DE000244A3FA301F0FCFFFF2066E6072A1046D5
:100DF0000CD31E4C2146143114222046FFF717FA5B
:100E000000272770012002F0F7F9F4E50090002791
:100E10001749184A37A3384601F0E2FF134CEAE5B8
:100E20005C000020805600088E5600084D61636803
:100E3000696E6520697320696E2073616665206D37
:100E40006F64652E0A000000000000202D24002E93
:100E5000294600D021460174002E00D01546C573E6
:100E60008173437314E10020004C26E65C000020EF
:100E7000805600088E560008000000204D6163680F
:100E8000696E6520697320706F776572206F666682
:100E90002E0A0000B00700207A5600088656000887
:100EA000456E74657220646972656374696F6E2043
:100EB0006F6620726F746174696F6E2073657474ED
:100EC000696E67206D6F64652E0A00000455000886
:100ED0005345000041550000E45500082B5600081A
:100EE00073657420706C61796572206E756D202D4C
:100EF000310A000073657474696E67206974656DEA
:100F0000206D6F766520746F2025640A0000000054
:100F10006325D7484575D74C0020029960540121BC
:100F20006176E162608426461836022070760802F7
:100F300060859DE00820CE498875CE4901224A7619
:100F40000B4634331C7A0A2C1CD15B7A0A2B19D13C
:100F500023230024CC54CA620B4623335C700C4616
:100F600018340323637612024A85A072F148467D45
:100F7000F0B20A252946FFF7BBF920724543701BE2
:100F8000607285E021230024CC544A850B462B3324
:100F9000DC709C705C700B462133DC709C705C7064
:100FA0000B4618335A760222DA75C97E002900D121
:100FB0000A2018726CE06326F748C675F74D0124C5
:100FC0006C76F0B20A273946FFF792F93946414369
:100FD000711A2A463432137A0A2B1CD1527A002A0B
:100FE00019D123220023AB546C852A462B32D370AF
:100FF000937053702A4623325370183503226A7651
:101000000222EA75A9726872E348807D0A21FFF71F
:101010006FF929723CE00022029BEA546A856A84D7
:10102000AA852A4618320223537603231B02EB8536
:10103000EB7E002B3C4600D00C465472002B00D0B7
:101040000746177224E06325D3480576D34C002069
:101050000299605403216176B949E184A0626084F9
:10106000A085E085B7482086264618364C20707348
:10107000E8B20A273946FFF73BF9E17E00293A46F4
:1010800000D002463272002901D04743EF1B77722D
:10109000C24C012003902076A07E012809D1608EE9
:1010A000002806D1AF2040006086E07E41424141E9
:1010B000E1763520205C657E854209D120462A30C4
:1010C000214646310522FFF785F8002800D1C6E009
:1010D000206AE0632746343726461836307B38735B
:1010E0002046413021462531049505252A46FFF743
:1010F0009EF82046463021462A312A46FFF797F8C7
:1011000004987870F07DF875208E3883207F3871D0
:10111000E08B6087A048028A501E8241059806999C
:1011200001F0C1F81320C143002206921546104673
:1011300000291BD0984B049018469B186C241F5B09
:1011400005922A466E255D5B70269B5B46183353DD
:1011500058243553442437530698C01806900498F1
:101160005519059AC019921D891CE1E70A273946CD
:10117000FFF7BEF8044628463946FFF7B9F8064699
:1011800006983946FFF7B4F80546694F38780028C5
:1011900035D0A0B2FFF7AFF90446F8686A4904F009
:1011A000F1F807466949204604F0ECF8394604F0A6
:1011B000A3F80446B0B2FFF79EF906465C48006902
:1011C000614904F0DFF807463046604904F0DAF878
:1011D000394604F091F80646A8B2FFF78CF90546A7
:1011E00053484069584904F0CDF807462846574906
:1011F00004F0C8F839464E4F04F07EF80CE003982E
:101200003870A0B2FFF77FF90446B0B2FFF77BF960
:101210000646A8B2FFF777F9FC603E617861204688
:10122000FFF71FF900900024434E444A484B494DB4
:1012300020463146A8473869FFF713F90090464B1E
:10124000204631463D4AA8477869FFF70AF90090E1
:10125000424B20463146394AA84707B0F0BD681EC8
:10126000032849D87844007940008744050A203F84
:101270005C000020000000202046203021463C3148
:1012800003E020462530214641310522FEF7A2FF2A
:10129000002800D01CE74B20205C2F21615C81429C
:1012A00000D015E74D20205C3121615C21E0204613
:1012B0002530214641310522FEF78CFF002800D061
:1012C00006E72046203021463C310522FEF782FF0A
:1012D000002800D0FCE64B20205C2F21615C81427D
:1012E00000D0F5E64C20205C3021D7E73820205C88
:1012F000217F814200D0EBE600202076E8E65021F5
:10130000C1832549C97E002902D00021C94300E0DC
:101310000121027F89180177C9B2FF2903D00E2964
:1013200003D3002100E00D210177042148E4C046E9
:10133000E00200205C0000207A5600088656000873
:10134000462D0000030500008FC2753F0AD7233DDC
:101350006B560008E12D0008565600083E5600085E
:1013600080B501F0B1FC02F04DFB2B200A49085C6E
:10137000CA6A1018C8620948C28B002A01D0521EDE
:10138000C2830A8A002A01D0521E0A82418E002995
:1013900001D0491E418680BD5C0000200000002075
:1013A00001F0A0FC02F074FAFFF7AEFA0A2003F095
:1013B000AFFAF5E7F0B585B016460C46074603F0E0
:1013C0004BFB0546002300930196802238462146B8
:1013D00003F03AFD074603F03FFB3168012F08D1C7
:1013E0000094019102950390002016A117A219A361
:1013F00007E0009401910295039000200349044AFC
:1014000004A301F00DFD05B0F0BDC04696560008DE
:101410009C5600082573207461736B2063726561AC
:1014200074696F6E206661696C65642E0948656138
:101430007053697A653A202575202D3E2025750A5E
:10144000000000004C4F473A200000001B5B313B7E
:1014500033376D00257320637265617465642E20D7
:1014600068616E646C653A20307825782E0948658D
:10147000617053697A653A202575202D3E202575C7
:101480000A00000080B5024800F0D0FC80BDC046D4
:101490001408002010B504460A48216C0322914329
:1014A000091880306164A0642168FC200840083875
:1014B0001421FEF71DFF1F21014001208840E06438
:1014C00010BDC0460008024010B5084942683F23DD
:1014D00013405A1E0323134001249C4092005218CB
:1014E000403102654165846510BDC0460009024077
:1014F00070B5846CC56C6560046D002C02D0446DC1
:10150000856D6560046C1C2525400124AC40084DA8
:101510002E6826432E600468636080681028134696
:1015200000D00B46A360102800D01146E16070BDCA
:101530000400024080B50120800300F0D3FD80BD8F
:10154000EFF3108072B6FEE70048704704010020F8
:10155000004870472C010020F0B589B004460025F2
:1015600008955420205C012801D102204BE0274639
:1015700054370120069038702046FFF78FF8266810
:10158000B268A16DD2072FD1049702908122520038
:101590009143891CA165F168F268444B1340F360E4
:1015A0004348084001903046B4300590414B4249D1
:1015B0002F460395082F28D0B2681A4018461833D2
:1015C0001343B360B268002A06D5089A521C0892E9
:1015D000089A8A42F6D30CE0059A12687F231340DA
:1015E0005D197F1C0346E5E7102211433D70A1659C
:1015F00009E0002004990870A06D10210143022029
:101600008143A165069809B0F0BDB1681F46194035
:10161000012006900143B160EB083169890F039DF9
:1016200014D10F218904EA4A12680A40910C072953
:101630000CD3C91E01228A400792079949080791D5
:101640000799002902D00799491EF8E70598016813
:101650007F22914319430160B16839400227394321
:10166000B16000F027FE064620688168C90712D0E5
:1016700000F020FE801B0328F6D320688068C00796
:10168000F2D0A06D10210143A165E06D06990843D9
:10169000E0650846B7E7C168019A1143C160A06DD3
:1016A00001210143B9430298049F9FE7FC7FFFFF9C
:1016B00003800000E8FFFF7F00F20200F0B589B070
:1016C000002508955422825C012A01D10224E1E020
:1016D0000646543601243470026893685B0711D4BF
:1016E00004694B68022B12D10420044384488442CD
:1016F00050D18248C0430B68D9430143906A0840E7
:10170000906248E0816D20220A438265C1E007961D
:10171000069304263443794B794FBC424BD10F6872
:101720003B40906A1843906238025369834389684A
:10173000014074480840184350610024002F01D430
:10174000079EA6E00126A2483B46076807208205BF
:10175000394611406C480293834273D1F0053B46F1
:1017600003406FD19A4F3B6893431943014339605B
:10177000684800686849FEF7BBFD0C2141430C3105
:101780000891079E0898002800D182E00898401E22
:101790000890F7E70B680024002B7AD58C48016885
:1017A0005A4A934269D05A4A934269D0564A934260
:1017B0006FD1052262E0029605951F27069C2740FF
:1017C0000F2500950397BD40046E0195AC4304942A
:1017D0000F681F424DD0FB07059D2C4662D1BB0709
:1017E0005BD47B075BD43B075BD4FB06029C59D4DC
:1017F000BB066AD47B066AD43B066AD4FB056AD46E
:101800000297BB0569D4029B5B0568D4029B1B054C
:1018100067D4029BDB0466D4029B9B0465D4029BC5
:101820005B0464D4029F3B04009C059D3AD4FB03F7
:1018300060D4029B9B035FD4029F7B03DB171224BF
:101840001C4018E03148029B834202D1300681429D
:1018500008D32F48029B834200D071E7B0050740B0
:1018600000D06DE7E34F3B68934319430143396070
:1018700066E77B00DC0E059D14E00322920501E083
:101880000322D20511400722920503689343591899
:1018900001603570204609B0F0BD012402E0022449
:1018A00000E00324039EB440049B1C430466069B93
:1018B0009B08C069984200D836E70198C043936AF4
:1018C0000340B800000FB0402CE70524EAE70624E7
:1018D000E8E70724E6E70824E4E7092408E00A2407
:1018E00006E00B2404E00C2402E00D2400E00E24AA
:1018F000029FC0E71024FBE71124F9E7FFFF070070
:101900000400008000FFFF07001000B0004000B896
:10191000002000B458000020400D030070477047BD
:1019200070B500280CD00446806D02210143A165EA
:101930002046FEF73BFE002804D0206801250EE07B
:1019400001253AE02046FEF7A9FE0546002801D110
:101950000120A06520688168A04A0A408260416831
:10196000174A0A40426017490160C168164A0A4096
:10197000C2604169072291434161816A0026866203
:10198000016A124A11400162416A11404162C16A12
:101990001140C1620321890702698A4302617F20E5
:1019A000800494490A6882430A60204600F024F9C2
:1019B00054202654E6652666A665284670BDC046B6
:1019C00060FCFFFF9F03000000021E8300F000F098
:1019D0000827014070470000F0B587B0044600209A
:1019E0000690002C5DD00590A06D002807D12546FB
:1019F0005435204600F022F900202870E0650127C8
:101A00003D072668B068C00012D4B0687349014031
:101A10002943B160724800687249FEF769FC4000D2
:101A2000801C06900698002802D00698401EF8E711
:101A3000B068284208D1A06D10210143A165E06D76
:101A4000012105910843E065B06804210140A26DC1
:101A500010252A405118A16D25D163480140891CE9
:101A6000A165B168C90778D1039527462037216B56
:101A70004A1E91410B03A168227E92030A43617EB4
:101A8000C9031143A27E50030843E56805431D4383
:101A90000120C307216900290490029307DA9943C2
:101AA00006E0012098E02943A165384694E041050D
:101AB0000D43387B43002B43387801280DD1002A91
:101AC00008D0A06D20210143A165E06D0499084371
:101AD000E06502E0049800040343626A002A06D02D
:101AE000072080010240A16A1143194300E0194612
:101AF000F0683E4A02400A43F260032082076368AE
:101B00001D461540E16C387F01280ED1206C0090F5
:101B1000676CA06C019000980743019807432F431E
:101B20000F43049807433D4600E00D4330693049B8
:101B300001402943316102988342039D0DD09342B5
:101B40000BD004988007834207D00F208004034005
:101B500028490A688243D0180860706907229043B8
:101B6000676B38437061706970218843A16B09010C
:101B700001437161216901235805814206D0002982
:101B800013D11949F331B06A08430DE0B06AE06936
:101B900080001C301C210140134804920246F3329D
:101BA0008A40206E1043049AB06270691040B842B7
:101BB00009D10020E065A06D01210143022081438D
:101BC000A165059808E0A06D284302218843A0651F
:101BD000E06D1843E065184607B0F0BDE8FFFF6F01
:101BE00058000020400D0300FDFEFFFF0102DEFF54
:101BF00002FCFF1F08270140F8B5044600683B4976
:101C0000884200D0F8BD012000050A490A688243D5
:101C10000A60052005070221074F2846B84780269D
:101C200028463146B84734483146B847206D00F061
:101C3000BFF8F8BD4010024001200008F0B589B09F
:101C4000002708970797026828498A424BD10290DB
:101C5000012319052648C2680A43C260C2680A40C7
:101C600003920399016801931943016001681940C7
:101C7000039103990168022211430160006810403A
:101C80000390039806970320059004920520009086
:101C9000060704AD174A304629469047802404942D
:101CA00030462946134A9047049413482946114A5E
:101CB0009047124D2F622020019A91021202104B80
:101CC0002B60009B6B60AF60EF602C616A61A96163
:101CD000E861284600F0FAF8002801D0FFF730FC50
:101CE0000298A862056509B0F0BDC0460024014015
:101CF0003410024011210008000400501408002094
:101D000008000240F8B50E460446006881680227C4
:101D1000490740D400925421615C01293BD02546FB
:101D2000543501272F70C168C9070BD18168C907D5
:101D300004D08168194A0A40911C8160C16801225F
:101D40000A43C2602046FEF7DBFC002823D1A06DC9
:101D500013490140012000020818A0650020E06539
:101D600021681C220A602870206D0E4A0E4B0F4D10
:101D7000C562036342634A68102313434B604031DA
:101D80003246009B00F0FAF8074620688168034A53
:101D90000A40111D81603846F8BDC046E8FFFF7F4C
:101DA000FEF0FFFF77060008910600080106000814
:101DB000F8B5002837D00446064624360068016886
:101DC0000127B9430160002505606B4940181421C3
:101DD000FEF78EFA800020641C2101408F403A48B3
:101DE0000168394301602046FFF754FB606C0560D1
:101DF000A06CE16C41606068401E032808D8204652
:101E0000FFF762FB206D00210160606DA16D4160F4
:101E1000E56325656565A565E56225636563A5637D
:101E20003570757000E001252846F8BDF8B5016CE5
:101E30001C240C4004263346A34023490A1F17687C
:101E4000026815683B4201D069071DD4034624335C
:101E50000226A6403E4201D0A90721D4E740390717
:101E600031D529072FD511680E25A943116001210D
:101E70000A46A240144D2C6814432C60C163002212
:101E80001A705970416B1BE01168890602D4116801
:101E9000B14311600C4A116819431160016B0FE0E6
:101EA0001168890605D411680A24A1431160012133
:101EB000597000211970044A116831431160C16AD8
:101EC000002900D08847F8BD04000240FEB5002874
:101ED0002FD0044601462431022002914870266822
:101EE0003068244901403160234830181421FEF73E
:101EF000FFF980002064A16827460C378DCFE56983
:101F00000095256A0195084310431843384300990A
:101F10000843019908433168014331602046FFF7C7
:101F2000B9FA0126B003A168814204D100206060A3
:101F300002E00120FEBD60683F210140626C11603B
:101F4000A16CE26C4A60401E032809D82046FFF7C6
:101F5000BBFA206D00210160606DA16D416003E05E
:101F6000002020656065A0650020E063029908708C
:101F70004E70FEBD0F80FFFFF8FFFDBFF8B50546B0
:101F80002420285C012801D1022436E02846243090
:101F9000012404704678012E12D1022444700024DA
:101FA000EC63286807680126B74307602846FFF7F7
:101FB0009FFA286801682A6B002A06D00E2209E0E1
:101FC000002101708020E86317E004229143016042
:101FD00002680A211143016031026A6C1368DB0355
:101FE00002D513680B4313602A6D002A02D01368D0
:101FF0000B4313600168314301602046F8BD0000C7
:10200000F0B588B0A04A904201D0052200E003223A
:102010000092002634463346374601910A46FA407C
:102020005BD001221546BD4007950D4050D004936A
:102030000323039702939F43944BD9190F46096ECC
:1020400005231B079842059408D0924B984206D06E
:10205000914A9042009A02D1022200E00022182404
:10206000069634400F263346A3401940A2409142C1
:1020700011D16037864A1168A94311605168A9439C
:102080005160824A5168A94351601168A9431160A7
:10209000396899433960059C029DA5400168294330
:1020A00001601C21049B19408E40039FF9088900A0
:1020B00041180A6AB2430A628168A9438160416893
:1020C000079A91434160C168A943C1600199069E86
:1020D0000836A41C1B1D7F1CA0E708B0F0BDC0463D
:1020E00070470000B0B50446074D2868204203D071
:1020F0002C60204600F00AF86868204203D06C602B
:102100002046FFF7EDFFB0BD0C18024070470000FD
:10211000F0B58AB004905C4A904201D0052000E0FE
:10212000032000900023089309931E4603910A6838
:102130001046F04000D1A5E001240194B4402240B3
:1021400000D196E002920796032210469840C743BA
:102150004D682E461640701E01280593069712D82A
:10216000049B98683840CA6805998A4002439A607F
:10217000E806C00F079988405A68A2431C46059B91
:102180000243626004E0032E049C01D116461EE067
:10219000E0680699084003998A689A400243E26021
:1021A000022E14D11C20089908400F228240079962
:1021B000CC08A40004990C19266A964303990A696D
:1021C000824032432262049C4D6803262E409E408A
:1021D00020680699084030432060A803800F0399C7
:1021E000079E029D45D0032032468243274882182D
:1021F000166E05200007049B834208D025488342C1
:1022000007D025488342009F04D1022702E000271F
:1022100000E0019F1820099B18400F248440A6432A
:102220006032874037431760184800684A68D30215
:1022300001D5284300E0A843079E144B1860586856
:10224000930201D5284300E0A843104B5860104882
:102250004068930301D5284300E0A843059B0C4C3C
:1022600060602068D20301D5284300E0A843084AF3
:1022700010609B1C0898001D089009980830099070
:10228000761C54E70AB0F0BD000C00500018024064
:102290008018024000040050000800500069084007
:1022A000411E88417047002A01D0182200E02822F0
:1022B00081507047064800687047C0460348007860
:1022C00003490A68101808607047C0465000002093
:1022D0004C19002010B501242002C5490A680243A8
:1022E0000A60032000F008F8002802D100F04EF840
:1022F0000024204610BDC046F0B587B001900127EC
:10230000B8041E490A6802430A6009680140039143
:10231000039803A802A900F055F9069C00F06AF999
:10232000174E1849184A32600025B561B560F16052
:102330003561611E8C41A0403849FDF7D9FF401E30
:102340007060304600F0B1FB002814D10C4800F05A
:10235000D7FB00280FD1162000F032F8019803288F
:10236000384608D81620019C21462A4600F034F849
:1023700093480460284607B0F0BDC04640100240B4
:1023800070080020E703000000480140E0B50B4959
:102390004A68012002434A604A6802400192019A59
:1023A00002070B6813430B60096811400091009904
:1023B000C0430321002200F00FF88CBD3C10024006
:1023C000002805D41F2108400121814001480160F7
:1023D0007047C04600E100E080B501F0E7FD80BD38
:1023E00070B5032569021B4E32688A43024332608E
:1023F00001214902002488420DD185480168062048
:1024000048430649FDF774FF801C7169490502D5F0
:10241000401EFAD12C46204670BDC04640420F00F7
:1024200010B5421E90410B4A13680724A3431818A5
:10243000106009480368042213430360012901D195
:1024400030BF02E040BF20BF20BF01689143016060
:1024500010BDC0460070004010ED00E0FEB50D4616
:102460000121002800D1A4E0019102906048006899
:1024700007242040A84213D25D490868A04328439E
:1024800008604D4EFFF716FF074659480068204088
:10249000A84205D0FFF70EFFC01BB042F5D987E078
:1024A000029B186881077B4E0CD5410703D5210399
:1024B00032680A4332600F21090232688A43996800
:1024C00011433160C00718D1494800682040A84234
:1024D00029D947490868A04328430860364FFFF7C9
:1024E000E9FE0646424800682040A8421BD0FFF79C
:1024F000E1FE801BB842F5D95AE05868032830D86D
:10250000810002A25158634A8F46C0461D2500082B
:1025100069250008732500087D2500081146083943
:10252000096849052CE0029A10784007594D05D5F5
:10253000200329688143D0680843286000F06CF8C4
:10254000296889093C220A401C4989581F220A40EF
:10255000D0402F4908601A480068FFF7CDFE0146B9
:1025600027E04C4A516D0AE0114608390968890391
:1025700006E0114608390968890101E0916D890773
:10258000019916D51168A143014311600A4FFFF765
:1025900091FE06463F480068382101400298406895
:1025A000C000814290D0FFF785FE801BB842F1D970
:1025B00003210846FEBDC0468813000044550008AC
:1025C00054000020B0B507220260324B1C68144052
:1025D00044600F2424021D682540856014031B6895
:1025E0002340C3600248006810400860B0BDC04688
:1025F000002002400648006826490968890A1C2212
:102600000A40044989581F220A40D0407047C046FA
:10261000580000208455000810B51E4C2068800624
:10262000400F06D0226838210A401B48082A07D1EB
:1026300010BD083C20688004410F1848C84010BDF8
:1026400022680A40102A15D1616803220A40032A31
:1026500000D0124861684906490F491CFDF748FE41
:1026600061684904490E48436168490F491CFDF7F8
:102670003FFE10BD20680840202802D10120C00381
:1026800010BD20680840182801D0002010BD7D2012
:10269000000210BD0810024000127A000024F4006D
:1026A000F0B587B00125002800D1E7E10495059039
:1026B0000078C007F34F14D0B96838200840F96893
:1026C0000325102802D12940032902D0082800D070
:1026D00097E03868800304D505984068002800D149
:1026E00080E105980078800724D4059800780007D9
:1026F0000CD5B8683821014018296DD1386E800793
:1027000004D505988069002800D16BE1059A1078FE
:10271000400700D43BE1B86838210140202900D0AF
:1027200082E0F86D800700D431E19068002800D085
:102730002DE157E1B96838200840F96803251028D1
:1027400002D12940022920D000281ED03868059ADD
:10275000D168002900D1AFE00721C902884311697F
:1027600001433960012001023A680A433A60840259
:10277000FFF7A0FD06463868204200D0AEE0FFF724
:1027800099FD801B0228F6D978E139684905059B37
:1027900003D5D968002900D124E17F2109027A6894
:1027A0008A43596909021143796000280DD1072035
:1027B000C00239688143186908433860386880046A
:1027C000400FB149C140B1480160B1480068FFF70E
:1027D00093FD002889D005E1386E059989690029A3
:1027E00059D0012108433866FFF764FD0646386E6C
:1027F00080078BD4FFF75EFD801B03250228F6D9E6
:102800003CE105984168012254041004814207D03C
:1028100005231B0499426BD191043A680A433A603C
:102820003968014339606CE0012003900107F86BBF
:102830000840029006D1F86B0843F863F86B084033
:1028400006900698019193480068C00513D4039838
:1028500004029049086820430860FFF72BFD0646F4
:102860008C480068204206D1FFF724FD801B032519
:102870000228F5D902E105988068874C012805D027
:1028800005284BD1F86D04210143F965F86D0399D2
:102890000843F8654CE0012188433866FFF70AFDDC
:1028A0000646386E800700D430E7FFF703FD801B33
:1028B00003250228F5D9E1E001210A02904338609E
:1028C0008C02FFF7F7FC06463868204200D10CE77F
:1028D000FFF7F0FC801B0228F6D9CFE07F20000232
:1028E0007968814305984069000208437860FCE6F6
:1028F0003B6883433B6090043A6882433A60002916
:1029000023D0FFF7D7FC06463868204200D0E8E61F
:10291000FFF7D0FC801B6428F6D9AFE0F96D039A6D
:102920009143F965F96D04229143F965002819D0A6
:10293000FFF7C0FC0646F86D800720D4FFF7BAFC0D
:10294000801B0325A042F6D998E0FFF7B3FC0646AA
:102950003868204200D1C4E6FFF7ACFC801B642835
:10296000F6D98BE0FFF7A6FC0646F86D800706D582
:10297000FFF7A0FC801B0325A042F6D97EE0029859
:102980000028059A03D1F86B01998843F863D4694C
:10299000002C72D0B86838210140102924D1012CB4
:1029A00020D0F86803210140059B1A6A914219D191
:1029B000702101405A6A914214D17F2109020140DD
:1029C0009A6A120291420DD11F2149040140DA6A2C
:1029D0009142049D52D1072149070840196B884252
:1029E0004BD04BE0049D49E001252906386804914D
:1029F00088433860FFF75EFC0646022C0BD1039536
:102A00006C063868204211D0FFF754FC801B032568
:102A10000228F6D932E06C063868204229D0FFF748
:102A200049FC801B03250228F6D927E0F8681C49D9
:102A30000140059E20366DCE084310431902014324
:102A400029433143F9603868049908433860039892
:102A50000007F9680143F960FFF72CFC0646386867
:102A600020420AD1FFF726FC801B03250228F6D955
:102A700004E0F86809490140F9600025284607B0DC
:102A8000F0BDC046001002400024F40058000020B1
:102A9000540000200070004088130000FCFFFEEF8F
:102AA0008C80C11F704770477047F8B5002823D04D
:102AB000044605463C3507463E37064644366878A8
:102AC000002804D100202870204600F017F80220CA
:102AD000687001CC214600F063FE0120307138702F
:102AE0007870B870F8703871787130707070B0703C
:102AF000F07068700020F8BD0120F8BD704700003C
:102B000010B53D21415C012918D101463D31022219
:102B10000A700168C86801221043C8600B488142EE
:102B200002D00B4881420BD188680A4B0340002039
:102B3000062B02D01404A34202D110BD012010BD07
:102B4000086810430860002010BDC046002C0140FA
:102B5000000400400700010070470000F8B504467B
:102B60000068C6680769B9074D4D15D5B10713D57B
:102B70002946FE310161012121778069800703D058
:102B80002046FFF7E9FF05E0204600F08DF82046DB
:102B900000F08BF800202077780717D5700715D53F
:102BA00020682946FC310161022121778069800576
:102BB000800F03D02046FFF7CFFF05E0204600F04E
:102BC00073F8204600F071F800202077380716D5FA
:102BD000300714D520682946F83101610421217796
:102BE000C069800703D02046FFF7B6FF05E0204606
:102BF00000F05AF8204600F058F800202077F80638
:102C000017D5F00615D520682946F0310161082155
:102C10002177C0698005800F03D02046FFF79CFF15
:102C200005E0204600F040F8204600F03EF8002085
:102C30002077F80708D0F00706D020682946FF3132
:102C40000161204600F032F84120C001074207D060
:102C5000300605D52068134901612046FFF723FFA0
:102C6000F80506D5300604D5206805612046FFF733
:102C700019FF780608D5700606D520682946C031A8
:102C80000161204600F01EF8B80607D5B00605D54C
:102C90002068E03505612046FFF706FFF8BDC04615
:102CA000FFFEFFFF7FDFFFFF7047704780B50068C2
:102CB0000349884200D080BDFFF700FB80BDC046BD
:102CC000004801407047FEE700203249282808D01C
:102CD0000A18137C012B02D1D3685B1CD36014301B
:102CE000F4E77047F8B500272A4E3C46282F50D00D
:102CF000F519287C6874A87AE87268682989FFF752
:102D0000CDFAA872297CFE220A40042A08D104299F
:102D10000FD1687C04282FD105202874002006E0FC
:102D2000E97A00280AD0002915D000202874E8602C
:102D300022E0012820D10220287418E001291ED1A8
:102D40000120287400940026304620A300F0B0F83B
:102D5000EE60104E10E002202874E86880087C289D
:102D600005D803202874009400200CA302E00094EE
:102D70000020094B00F09CF81437641CB6E7E868A3
:102D80000B498842F8D3042028740094002009A33A
:102D9000F0E7F8BD04010020AB5600084B65792030
:102DA000256420636C69636B65642E0A0000000073
:102DB000D10700004B6579202564206C6F6E672079
:102DC000707265737365642E0A0000004B6579208C
:102DD000256420707265737365642E0A000000001C
:102DE000BCB51D460B4606A80190002407A120464D
:102DF00000F0B0FA01AA2046294600F0B9FA05A170
:102E000005A2204600F0A6FABCBDC0462573257376
:102E100000000000257300001B5B306D0000000007
:102E2000BCB51D460B4606A80190002407A120460C
:102E300000F090FA01AA2046294600F099FA05A16F
:102E400005A2204600F086FABCBDC0462573257356
:102E500000000000257300001B5B306D00000000C7
:102E6000BCB51D4606A80190002408A109A20BA329
:102E7000204600F06FFA01AA2046294600F078FAB1
:102E800008A109A2204600F065FABCBD2573257390
:102E9000000000001B5B313B33326D004442473A77
:102EA00020000000257300001B5B306D0000000057
:102EB000BCB51D4606A80190002408A109A20BA3D9
:102EC000204600F047FA01AA2046294600F050FAB1
:102ED00008A109A2204600F03DFABCBD2573257368
:102EE000000000001B5B313B33326D004442473A27
:102EF00020000000257300001B5B306D0000000007
:102F0000BFB53C212448002444542C2101224254C2
:102F1000C4640621046341638163446284620321C3
:102F2000C1618276048304251C495305D20716C06B
:102F30000460436085600394029401940C38FEF7AA
:102F40004BFD002801D0FEF7FBFA039402941448CD
:102F50000190114801A9FEF7B1FB002801D0FEF74E
:102F6000EFFA039402950F4801900B4801A9FEF770
:102F7000A5FB002801D0FEF7E3FA03940820029095
:102F800009480190044801A9FEF798FB002801D0E8
:102F9000FEF7D6FABFBDC046B007002000240140AE
:102FA000020000048000001C0008002C1CB5094829
:102FB00001680122114301600068104001900198EE
:102FC0000924002120460A46FFF706FA2046FFF7AB
:102FD000F7F91CBD3810024010B586B001AC06A14F
:102FE00014222046FDF723F90021204601F04CF879
:102FF0000649086006B010BDC05500082936000813
:1030000000000000000000008000000048090020CF
:10301000F0B589B0002408943D480168022201926D
:103020001143016001681140039103990168042272
:1030300002921143016001681140039103990168F4
:103040000125294301600068284003900398314816
:103050003149324E2246B0470520070730493846ED
:103060002246B047290238462A46B04707940694BC
:1030700005952948049004AE26483146294A9047D0
:103080000695212000040590A803049026483146A7
:10309000244A904706940594E80304902248314658
:1030A000204A90471F4A06950594049538463146B4
:1030B00090470794069405951C480490384631467D
:1030C000184A904701980790069505953820049076
:1030D00038463146134A9047069505940298049065
:1030E0000C4831460F4A90470E4A069405946802F0
:1030F000049038463146904707250321284622464A
:10310000FFF76AF92846FFF75BF909B0F0BDC04642
:10311000341002400004005043030000A7220008BE
:103120003C080000112100080008005004090000BC
:10313000FEB581001F4801914018029000271EA291
:10314000052F1BD00026042E16D0D05D0299895D74
:10315000884211D0032E0DD1450028464038C0B218
:103160000024214600F098FD3F3DE8B2214600F0E2
:1031700093FD11A2761CE6E77F1CE1E710A0019900
:1031800044180026042E11D0A55D0F212940029875
:10319000805D470038464038C0B200F07DFD290907
:1031A0003F3FF8B200F078FD761CEBE7402000F0DE
:1031B00067FDFEBD09550008000102040300000080
:1031C00001010101010101010101030301070707D9
:1031D0000F0F0F0F0E0E0E080C0C08080808080839
:1031E00008080808080818180838383839393939EB
:1031F00031313101212101017CB5044628200F49DC
:103200000D5C29228D540C54661F012E06D8022D08
:1032100004D0084614301422FDF709F80020022ECD
:1032200001D3014600E00121054A91760095019401
:103230000449054A05A3FFF7D3FD7CBD5C000020CF
:1032400000000020805600088E5600084D6163681B
:10325000696E6520737769746368206D6F64653A81
:10326000202564092D3E0925642E0A00FEE7000092
:10327000EFF309800E4B1A6820381060F0C0444606
:103280004D4656465F46F0C008B572B601F0B6FB33
:1032900062B60CBC116808681030F0C8A046A94698
:1032A000B246BB4680F309882038F0C81847C046AC
:1032B000E401002080B500F051FD80BDF8B5144652
:1032C0000D46064622480078532801D000F046FDFE
:1032D000EFF31087012181F31088304629462246FA
:1032E00000F004F887F31088F8BDC046F8B514461E
:1032F0000D461821414316484618F06A1836022830
:1033000010D0012815D0002700281ED1304600F02B
:1033100055FDA04219D330462946224600F02AFE28
:10332000274612E030462946224600F0F5FD0746C2
:103330000BE0304600F042FD0746A04200D327468E
:10334000304629463A4600F015FE3846F8BDC046DC
:10335000F802002082B0E0B50492059304AA01921D
:1033600001AA00F005F88CBC02BC02B008470000BE
:10337000F0B59FB007920E4602901E9000271C9752
:1033800040201B900AA81A901D9731783046761C71
:10339000252906D0002900D11AE11AA800F09CFDC9
:1033A00090E0801C00253178232907D02B2907D0F5
:1033B0002D2907D030290AD1022104E0082102E09A
:1033C000042100E001210D43401C761CEBE70024A2
:1033D0000897302909D3392917D80A22624354188B
:1033E000303C401C7178761CF3E72E290DD1002764
:1033F0000921CA4301780B463A3B934207D30A227C
:103400007A435718303F401CF2E7002700E0064699
:10341000761C0846633809280DD8C04678440079E0
:1034200040008744545A4F4F4F044F4F4F04701C75
:1034300031780646EDE708467038082815D8C046AA
:103440007844007940008744043D3D1E3D313D3DB8
:103450001400079A1068011D1160016800200823FC
:10346000009301901AA810222AE0252958D0582943
:1034700028D1079A1068011D116001680094019518
:103480001AA810221BE0079A1068011D1160046839
:10349000002C00D156A42178002913D01AA800F0DE
:1034A0001BFD641C1D980028F5D50BE0079A1068D9
:1034B000011D11600168009401951AA80A223B467B
:1034C00000F088FC1D9F002F00D45EE78DE0079A76
:1034D0001068011D116001785FE7079A1068011DEF
:1034E00011600268D01711464140081A06925142F5
:1034F0000491012109910A2805D30A21FCF7F8FE5D
:103500000999491CF6E70998B84200D80997002C98
:1035100009D00698002801D4680705D5641E03E089
:103520001AA825213AE70024022129400596039193
:1035300001D0002F13D0E80711D1002C0FD0661E48
:10354000A6420CD20998A04209D21AA8202100F064
:10355000C3FC1D98089000283446F0D521E0089857
:103560000028059EAED40698002804D4680704D429
:10357000069804900AE02D2102E02B210698049081
:103580001AA800F0A9FC1D9800289BD403980028D5
:1035900009D1009401951AA80A2204993B4600F02B
:1035A00019FC059E8EE7012028403843F1D1002CFC
:1035B000EFD0661EA642ECD20998A042E9D21AA822
:1035C000302100F089FC1D9800283446F1D5E8E749
:1035D000002F09D01C9D002D04D00AA902982A466C
:1035E000FFF76CFEEF1900E0002738461FB0F0BD72
:1035F000284E554C4C29000070470000F8B51C4679
:1036000015460A460146064E064F3046B847304634
:1036100029462246B84706AA07CAB847F8BDC04699
:1036200000040050A722000882B0FFF743FEFDF718
:10363000BBF81948009019A0012100240A4623462E
:1036400001F0E8FD0546642001F062F9154816A175
:10365000184E194F3246B847321D184818A1B847BE
:1036600008361A481AA13246B847002D10D001F08A
:10367000B5FC0246009401212846234601F012FEC3
:10368000012805D000201549154A16A3FFF7C8FBED
:10369000642001F03DF9FBE7514A000854696D656B
:1036A00072000000DD3C0008544D3136333954615E
:1036B000736B0000D0010020B5130008A1130008AF
:1036C000436F6E736F6C655461736B00513D0008FE
:1036D000546573745461736B0000000096560008C3
:1036E0009C56000854696D657220302073746172B5
:1036F00074206661696C65640A00000010B501F011
:1037000010F8044601F06EFC002803D001200007E9
:1037100002490860204601F019F810BD04ED00E0F0
:10372000F0B591B004AC201D1821FCF7DFFD012796
:103730007802FEF755FE7807109078040F90082065
:103740000E9000260D9602250C950B9540200990B1
:1037500008963802079004952046FEF7A1FF00283E
:1037600003D0EFF3108072B6FEE7039602960720AF
:103770000090019568462946FEF770FE002803D0A8
:10378000EFF3108072B6FEE711B0F0BD7047000095
:1037900080B50248FFF7E2F980BDC04670080020FE
:1037A000B0B504681E4A904204D01E4DA84206D00F
:1037B000234608E070239C434B6823430FE07023AB
:1037C0009C434B682343A84209D0174CA04206D023
:1037D000164CA04203D0164CA0421C4604D1032430
:1037E0002402A343CC681C4380239C434B6923439E
:1037F00003608B68C3620B688362904205D00B4AFA
:10380000904202D00A4A904201D109690163012124
:1038100041610269D20702D002698A430261B0BDE8
:10382000002C0140000400400020004000480140FE
:103830000044014010B5002000F06BFFC02000F0F4
:103840001FFA1024002C04D0002000F0F9F9641EA7
:10385000F8E7012000F05DFF10BD000010B5012465
:10386000204600F043FF204600F053FF204600F0C2
:1038700035FF022000F026FA402000F001FA8720F0
:1038800000F0FEF9FFF7D6FF9548047010BDC04662
:10389000F8B500273C463C2F4ED02848C619327A4E
:1038A00072727178B17001200546A540244B9B8847
:1038B0002B405D425D417570FE251540042D05D1FC
:1038C000042A10D105203072002015E0002B0FD003
:1038D000012913D1307200940025284622A3FFF756
:1038E000BFFA756025E0002B23D1022030721BE067
:1038F00000290DD00020307270601AE07068114904
:10390000884216D304203072009400200EA30EE0EB
:1039100002203072706880087C2805D8032030723D
:103920000094002017A302E000940020144BFFF73E
:1039300097FA641C0C37AEE7F8BDC0462C01002096
:10394000DC010020D1070000544D31363339204BC3
:103950006579202564206C6F6E67207072657373C3
:1039600065642E0A00000000544D31363339204B77
:10397000657920256420707265737365642E0A0072
:10398000A4560008544D31363339204B6579202533
:103990006420636C69636B65642E0A00FEB5019256
:1039A000029100900024E0B20299884222D20428B9
:1039B00001D0214600E00321032800D10421CEB22A
:1039C0000098805D00F01CFB07460198855D0F2183
:1039D0003940660030464038C0B200F05DF9681EDC
:1039E0008541E801384301093F3EF0B200F054F947
:1039F000641CD8E7402000F043F98A2000F040F929
:103A0000FEBD0000F8B5AE4D6878032856D30024FB
:103A1000204600F07EFE422000F012F9204600F021
:103A200065FE0720C6432746082E24D035460835B4
:103A3000002000F053FE022000F044F905200007AA
:103A40001021FEF72BFC0121072D04D8A9400028E6
:103A500006D00F4307E0B140002803D00C4302E03A
:103A60008F4300E08C43012000F038FE022000F07C
:103A700029F9761CD8E70125284600F037FE2846AC
:103A800000F047FE8E48C4708770E0B2F9B20902B8
:103A900008180021134A0B4605290CD02C468C40EF
:103AA0001688761E0746F7402F407E422640334355
:103AB000921C491CF0E7824DAB80002000210A4A8D
:103AC0003C2908D053181C7A012C02D15C68641C74
:103AD0005C600C31F4E7297840186870F8BDC04686
:103AE000DC010020B65500082C010020F0B585B09F
:103AF000144602910190981804900392E0B2049940
:103B0000814222D9042801D0660000E0062603285D
:103B100000D1082630464038C0B20399611AC9B2B4
:103B2000029A575C019A515C444A555C0F21294026
:103B300000F0B2F8781E8741F801284301093F3EA2
:103B4000F0B200F0A9F8641CD8E7402000F098F823
:103B50008A2000F095F805B0F0BDC04680B542421D
:103B600042410520000701210902FEF79CFB80BDB0
:103B7000F0B587B001930392049000270C9805904C
:103B800006910291F8B20699884222D2042801D007
:103B90003C4600E00324032800D10424E5B2049845
:103BA000405D00F02DFA06460598455D0F21314035
:103BB000640020464038C0B200F06EF8681E8541AF
:103BC000E801304301093F3CE0B200F065F87F1C9A
:103BD000D8E70698019908180490029CE0B204996D
:103BE000814222D9042801D0660000E0062603287D
:103BF00000D1082630464038C0B20699611AC9B2D1
:103C0000059A555C039A515C0C4A575C0F21394068
:103C100000F042F8681E8541E801384301093F3E43
:103C2000F0B200F039F8641CD8E7402000F028F822
:103C30008A2000F025F807B0F0BDC046BD56000848
:103C4000F8B504461E4E00273770082F14D2002006
:103C500000F044FD012522462A40052000071021DE
:103C6000FEF721FB284600F039FD284600F02AF82F
:103C70007F1CE0B24408E8E701203070F8BDC04680
:103C800010B50446002000F044FD2046FFF7D8FFA1
:103C9000012000F03EFD10BD70B50C460546084EF3
:103CA0000020307000F035FD2846FFF7C9FF2046A0
:103CB000FFF7C6FF0124204600F02BFD347070BDD5
:103CC000DC0100200021814206D200BF00BF00BFFE
:103CD00000BF00BF491CF6E77047000082B01B4CD4
:103CE000207800282ED06078401E032828D8C046AF
:103CF0007844007940008744010A1220637EE27D07
:103D00002046083021461231FFF7F0FE18E0617EB0
:103D100020460D3022461232FFF740FE10E0607E52
:103D2000217E224612320092401AC3B220460D3044
:103D300022460832FFF71CFF02E02079FFF7F8F96E
:103D4000002020700A2000F0E3FDC9E718000020E1
:103D50007D20C00000F0DCFDFAE7000010B5124C39
:103D6000A8212046FCF7C2FA0320206160610F49B8
:103D7000A1610F48E0610120800220620020A06262
:103D80006062E06221660B4961661021A1662067CE
:103D9000E066606708490F31102804D00A78225481
:103DA000491E401CF8E710BDF8020020C856000864
:103DB000B0030020A0030020A4550008C2680169D8
:103DC000914201D9D04302E0D24389188068081893
:103DD00070470000F0B587B00393174605900126A1
:103DE0000D9D0C9C01910846B84204D33946FCF75E
:103DF0007FFA761CF8E706970127039B9E4200D8BE
:103E00001E4628463840002C0496029018D0002800
:103E100016D12020A90701D4054600E03025002B4B
:103E200000D00546002C0BD0A64209D2059E304694
:103E3000294600F051F8641EF068049E0028F1D570
:103E40000598C06800283DD40094019D039C022C75
:103E500002D3641E069906E028463946FCF748FA64
:103E60000699884201D34F43F1E7059E284639461B
:103E7000FCF73EFA044614A0015D304600F02CF831
:103E8000F068002809D47C432D1B3846069C214647
:103E9000FCF72EFAA7420746E8D202980028049EB3
:103EA00000980FD000280DD0059D441E844209D2F1
:103EB000864207D22021284600F00EF8E868002844
:103EC0002046F2D507B0F0BD3031323334353637C5
:103ED000383941424344454610B504464268836838
:103EE000581C904201D9184606E02268D154A060BF
:103EF000E168491CE1606268904208D1216820694C
:103F0000FFF7DCF9A168884202D10020A06010BD53
:103F10000020C043E06010BDFEB516460D46C768E0
:103F2000002101900269BA42029103D9F943541861
:103F3000816803E0F9435218816854184268C91B2C
:103F40008C4200D30C46B44200D33446D0192946E3
:103F50002246FCF76CF9E719019881688F4200D17D
:103F600000270299C760361B2D196118002ED9D180
:103F70000846FEBDF8B5154604464068A268E668E6
:103F80008019971BBD4204D22A46FCF750F97519D7
:103F900009E00E463A46FCF74AF9F119ED1B606854
:103FA0002A46FCF744F9E560F8BD0000002805D476
:103FB0000322034693430A4A9A1803E00C22024064
:103FC000064BD2188007C00E8901C9B28140FF2379
:103FD00083401068984308431060704714ED00E078
:103FE00000E400E0BFF34F8F034804490160BFF3D2
:103FF0004F8F00BFFDE7C0460CED00E00400FA055E
:1040000001464139C9B2192901D80EA005E001467F
:104010006139C9B2192902D803A0405C70472D3814
:104020004142414188017047777F275E79475E763C
:10403000061E803880803F7367336D313E808080FC
:104040006E000000777F273F79715E76061E80380C
:1040500080803F7367336D313E8080806E0000004A
:10406000FEF738F9FFF75CFBFEF7D2FFFEF79EFF85
:10407000FEF746FFFEF7B0FF00F001F8FEE780B55F
:1040800000F08EFC002080BD7FB50B460446028AFE
:1040900001684068258903AC01940024842D2646DC
:1040A00001D02DB2EE1C009600F0CEFE012800D10A
:1040B000039C204604B070BDF8B5002101710420B6
:1040C00005221207009201900291012002220B4664
:1040D000FFF794FA8FBD0000F8B50E4605468C4CEC
:1040E000A7692068001D00F020FB681C08D1002E85
:1040F00006D020685034011D204600F04EFBF8BD6C
:104100007D192068456005D3606B2168091D00F0AA
:104110002DFBF8BD206B2168091D00F027FB606AAC
:10412000854200D26562F8BD70B500F043FB0F4ECA
:104130003068002816D134461434204600F009FBBC
:1041400035462835284600F004FBB460F5600120B0
:104150000C21002200F0A2FC3060002802D004A153
:1041600000F0A4FB00F030FB70BDC0465C020020F4
:10417000546D72510000000010B5026C002A0BD083
:10418000C3689B18C3608468A34201D30368C360FB
:1041900008461946FCF74BF810BD70B515460446A5
:1041A000026C866B002A18D0002D1DD0E068FCF749
:1041B0003EF8206CE168091AE1602268914203D25E
:1041C0004042A1680818E060701E31468141A81E77
:1041D000424242410A40B61A02E02068002811D04B
:1041E0000020711CA16370BD6068FCF720F8206C92
:1041F000616809186160A26800209142F1D32168CA
:104200006160EEE7A06800F04FFF0021A160E8E7E1
:1042100010B50446006B00F0E3FA204600F0E0FA27
:1042200010BD00003A4D0E4EA868002812D000F0D4
:10423000C1FAA86CC468201D00F077FAE868401E37
:10424000E860A868401EA86000F0BEFA2046FFF7AC
:10425000DFFFE9E730680228E6D300F01BFBE3E765
:10426000BC08002070B50F4B1A4618321146126870
:104270008242FBD34D684E194468864202D16419CC
:104280004C6008460519954206D15B689A4203D0F6
:1042900053681B19436012680260814200D00860B5
:1042A00070BDC0469802002010B541600061914287
:1042B00006D99F4C08349A4208D2994206D30BE0A3
:1042C000D11A8269914207D2994C0C34011D2068A1
:1042D00000F04CFA002010BD012010BD10B50446BE
:1042E00000F068FAA06B4442444100F06DFA2046A9
:1042F00010BD00000648016B0968002904D0016B5D
:10430000C968C968496801E00021C9434162704732
:10431000E4010020FEB5044600F060FE844D2969EA
:10432000884229D201900294A8680168002925D00A
:10433000C0680668C7683C1D204600F0F6F9396A77
:10434000384688472420385C4007EDD5B869801985
:10435000B04206D978603F61A868214600F006FAAD
:10436000E2E700210091384632460B4600F09AFF02
:104370000028D9D172B6FEE7002105E0E968A960FE
:10438000E8600121029C019828612160FEBDC046C1
:1043900081B0002000900548006872B6401C00D033
:1043A000FEE700980028FCD001B0704768010020AB
:1043B00086B05F4FB8680568002D02D0C0680468F9
:1043C00000E0002400F014FB03A8FFF7A3FF06465B
:1043D0000398002802D000F0C5FE9AE0002D03D01B
:1043E000B44211D9002203E0F86800684242424119
:1043F000A11B386800F06AFA00F0B4FE002800D073
:1044000087E000F047FA84E000F0ACFEB868C068CE
:10441000C568281D00F089F92420285C410705D4CF
:1044200029462431FE221040087012E0A8690119C3
:10443000284632462346FFF737FF002809D00021DF
:104440000091284622460B4600F02CFF002800D1A0
:104450006CE0296A284688475BE00398002858D416
:10446000059C6069002802D0201D00F05EF902A8BA
:10447000FFF750FF0246039809284AD8784400798C
:1044800040008744040404252B3A0404252B2420EF
:10449000215C01230B432354A069049BC1182046CF
:1044A000FFF702FF002834D026462436216A204632
:1044B0008847307840072CD5A069049900954218A8
:1044C000204629462B4600F0EDFE002821D12BE0A6
:1044D0002420215CFE220A4022541AE02420215C80
:1044E00001230B4323540498A06100281AD081189B
:1044F00020461346FFF7D8FE0BE02420205C8107FE
:1045000003D4204600F06CF903E02434FE21084077
:104510002070386803A900252A4600F0E4FB002833
:104520009BD147E772B6FEE772B6FEE772B6FEE7CA
:104530005C020020F8B5044605462435064644369C
:1045400000F038F9777878B201280BDB286800286A
:1045500008D0284600F0D6FD002801D000F0F6F97A
:104560007F1EF0E7FF25757000F02EF900F022F9AC
:104570001034377878B201280BDB2068002808D087
:10458000204600F0BFFD002801D000F0DFF97F1EBB
:10459000F0E7357000F018F9F8BD0000F8B50546F1
:1045A00000F026FA0120C207A04F7968002905D043
:1045B0003978002910461DD108461BE000920021E1
:1045C000F9610722D343324C6207224601D0E21D33
:1045D0001A40BA610603A4191C40083C7C602160A3
:1045E0006160A11A51607B681360F960B96038702E
:1045F000009A10460024284205D000F0B3FD600761
:1046000009D072B6FEE7002DF7D0680705D0072065
:104610008543103502E02046F8BD0835002DECD06A
:10462000B9688D42E9D800923E461836BB693246D9
:104630001E465868A84202D23368002BF7D17B6827
:104640009E42DAD0146833681360421B112A0AD3E1
:104650007019410701D072B6FEE742607560FFF73E
:1046600001FEB9687068091AB960FA68914200D20F
:10467000F96039780029009A00D10A4608341043BD
:104680000021316070603869401C3861B5E7C04670
:104690004C0900200346083B1960011F01231B063B
:1046A0000B6001460C39034B0B60014620390A6050
:1046B0004038704791430008F8B50021017102911C
:1046C00040200190044800900122500212020B4643
:1046D000FEF794FF8FBDC0460004005080B502462F
:1046E000052000070821FDF7DEFD80BDFEB5002195
:1046F000059104910121039110210191401E414235
:10470000414102910520000701A9FDF701FD06B016
:1047100080BD80B50246052000072021FDF7C3FDBE
:1047200080BDEFF3108072B67047416882688A607E
:104730008268516001694B68834200D14A600A680F
:10474000521E0A60002202610868704780F31088D8
:1047500070470021016002460832C943426081600F
:10476000C26002617047002101617047B0B50C68FA
:10477000621C07D002460832134652681568A542EB
:10478000FAD901E003695A68916008614A608B6058
:1047900059600168491C0160B0BD426893684A6075
:1047A0008B60086103685B1C0360906841609160E6
:1047B0007047000072B6B8480168491C0160BFF339
:1047C0004F8FBFF36F8F7047B3480168002903D044
:1047D000491E016002D0704772B6FEE762B67047AC
:1047E00070B5002821D004469D4D2878411E88418F
:1047F000C007261F3168084205D0083C2268002AFD
:1048000003D072B6FEE772B6FEE78143316000F076
:10481000EFF83068A9680818A8602046FFF722FD65
:104820006869401C686100F09DFC70BD9802002022
:1048300010B5074C00202060A0607D20C100054815
:104840000068FBF755FD401E60600720206010BD2A
:1048500010E000E058000020000000000000000010
:104860000B4A13681868203080F30988022080F30F
:104870001488BFF36F8F3FBCAE4608BC04BC62B661
:104880001847C046C046C046C046C046C046C0469F
:10489000E40100200120000703490860BFF34F8FA7
:1048A000BFF36F8F7047C04604ED00E010B50022E3
:1048B000054B402A07D09C58002C01D00832F8E75D
:1048C00099509918486010BD5019002070B51546D0
:1048D0000E460446FFF76EFF4420215C204644301C
:1048E000FF2901D1002101704178FF2901D1002168
:1048F0004170FFF769FFA06B002805D120462430E6
:1049000031462A4600F036F82046FFF713FE70BD08
:1049100080B5002810D04C494A69002A01D072B6EF
:10492000FEE74A69521C4A610021FFF7D5FB00F0FF
:1049300019FC002800D080BDFFF7ACFF80BDC04649
:1049400041498A6B02608969416070473E48012194
:104950008162704710B500280AD00C463A490968B0
:104960001831FFF703FF01212046FFF7B5FB10BD0B
:1049700072B6FEE7B0B500280FD014460D46324996
:1049800009681831FFF709FF002C01D00020C5434A
:1049900028462146FFF7A0FBB0BD72B6FEE7C04631
:1049A000BCB5002400940E4D2846203001900D48DF
:1049B0000DA18022234600F047FA012801D100F022
:1049C00053FC411C0AD0012807D172B6E04368624B
:1049D00001202861AC6100F045F8BCBD72B6FEE76D
:1049E000E40100202542000849444C450000000035
:1049F00015484169491C41617047C04610B51248CD
:104A00004169002902D00121816210BD002181622B
:104A1000C16914224A430D4B9A181368002B04D124
:104A200000290FD0143A491EF7E753685B685360BA
:104A3000144608349C4201D15B685360DA68026016
:104A4000C16110BD72B6FEE7E4010020BC08002081
:104A500080B5FCF785FC80BD014880687047C04682
:104A60009802002010B5FF2001040A4A13680B4386
:104A700013600006116801431160FFF7D9FE064874
:104A800000240460FFF7ECFEFFF7B8FFFFF780FC9F
:104A9000204610BD20ED00E06801002070B5002820
:104AA00016D00D46064648434830FFF777FD0446CA
:104AB00000280BD0E6632564002D204601D0204657
:104AC000483020600121204600F004F8204670BDE7
:104AD00072B6FEE770B5002820D00D4604460646A3
:104AE0004436FFF767FE0020A063FF203070216886
:104AF0007070E06B226C431E504308185343CA1871
:104B00006160A060E26020461030002D08D0FFF701
:104B100020FE24342046FFF71CFE0AE072B6FEE7B2
:104B20000168002905D000F0EDFA002801D0FFF758
:104B3000B1FEFFF749FE012070BDF0B587B00393C9
:104B40000692002812D017460D46044600290FD0C1
:104B50000398022802D1E06B01285CD100F032FA00
:104B600000280AD1002F08D072B6FEE772B6FEE721
:104B7000206C0028ECD072B6FEE70195264644363C
:104B80002046103002900127FFF714FEE06BA16B66
:104B9000039A022A41D081423FD30698002850D080
:104BA000F80702D004A8FFF7CBFEFFF70DFEFFF7D2
:104BB0001FFFFFF7FFFD3078FF2801D10020307084
:104BC0007078FF2801D100207070FFF7FDFD04A868
:104BD00006A900F00DF9002836D1FFF7EBFDE76BD1
:104BE000A56BFFF7F1FDBD420ED106990298FFF7C4
:104BF000B1FE2046FFF79EFC00F0B4FA0027002823
:104C0000C2D1FFF747FEBFE72046FFF793FC00F055
:104C1000A9FA0027B8E772B6FEE720460199039A81
:104C2000FFF7BBFA616A002903D02434204600F064
:104C300069FA002801D0FFF72DFEFFF7C5FD01201E
:104C400008E0FFF7C1FD04E02046FFF773FC00F029
:104C500089FA002007B0F0BDFEB5002814D01F4629
:104C600014460D460646002910D0022F02D1F06BE3
:104C700001282DD1FFF755FDF26BB16B022F0AD041
:104C8000914208D300252AE072B6FEE7306C002876
:104C9000EBD072B6FEE7029001944520345CB06B15
:104CA000304629463A46FFF778FAFF2C12D1706A4F
:104CB0000125002812D02436304600F023FA01994D
:104CC00000290BD00028029809D001250D6006E0CC
:104CD00072B6FEE74536601C307001250298FFF77A
:104CE00035FD2846FEBDF0B585B0049200280CD0F5
:104CF00016460D46044600295CD000F063F90028F2
:104D000005D1002E03D072B6FEE772B6FEE700951D
:104D1000264644362046243001900127FFF74AFDFD
:104D2000A56B002D4BD1049800285BD0F80702D06A
:104D300002A8FFF705FEFFF747FDFFF759FEFFF753
:104D400039FD3078FF2801D1002030707078FF28BD
:104D500001D100207070FFF737FD02A804A900F010
:104D600047F800280BD02046FFF7E4FB00F0FAF9E3
:104D70002046FFF7B3FA00270028CFD035E02046C1
:104D8000FFF7ACFA00280ED004990198FFF7E2FD76
:104D90002046FFF7CFFB00F0E5F900270028BDD142
:104DA000FFF778FDBAE72046FFF7C4FB00F0DAF919
:104DB0000027B3E7206C00289FD072B6FEE720469C
:104DC0000099FFF7D9F9681EA06320690127002820
:104DD00009D01034204600F095F9002803D0FFF7E1
:104DE00059FD00E00027FFF7EFFC384605B0F0BDA5
:104DF000F8B500281DD00E4600291CD00546FFF747
:104E0000D9FCD7488269316800244B1C18D02F6820
:104E10006B68806BB84201D09A4210D2D21A91428C
:104E20000BD9881A3060CE49886B28608869686021
:104E300006E072B6FEE772B6FEE70020306001249D
:104E4000FFF7C2FC2046F8BDF0B589B007930D46C8
:104E5000069096003046FFF7A1FB0024E2430028AD
:104E600000D1A8E0074608925420FFF797FB0028DE
:104E70001BD00E9A01463431029003460763F019A5
:104E8000071F0726002D059114D0089234204428CE
:104E900007D0291834390A781A540978401C002997
:104EA000F5D10598C473089A06E03846FFF798FCD8
:104EB000089A80E0002008700F980190B74303978C
:104EC0009C64062A00D306225A64DA62029D281DD9
:104ED000049008931746FFF746FC18352846FFF75D
:104EE00042FC0898C4647E4008988661059804775F
:104EF000089840620898006103980699079AFFF79E
:104F0000C9FB089908600198002800D00160FFF7EC
:104F100051FCBE4EF068401CF060306800280AD09A
:104F200030690028089A27D1D06A3168C96A81425D
:104F300022D8326020E0089A3260F06801281BD144
:104F4000B34D8C2C04D02819FFF703FC1434F8E778
:104F50001A4F1B4C3846A0473D4614352846A047FB
:104F600030466430A04730463C30A0473046503091
:104F7000A04737637563089A7068401C7060D06AF8
:104F8000F169884200D9F06114214143A0484018DA
:104F90000499FFF702FCFFF717FC30690122002893
:104FA00009D00898C06A3168C96A814203D21446A0
:104FB000FFF770FC2246104609B0F0BDB802002091
:104FC0005347000891480169002904D040694142D3
:104FD00041414800704701207047C0468B488069B6
:104FE0007047C046FEB5894D6869002804D0E86A5C
:104FF000401CE8620020FEBDA869461CAE610ED3CD
:10500000286B0068002801D072B6FEE7286B696B38
:1050100029636863A86B401CA863FFF76BF9686A93
:10502000864201D200222EE0002001900290286BDF
:105030000068002823D0286BC068C768786886425B
:105040001FD33C1D2046FFF770FBB86A002803D031
:1050500038461830FFF769FBF86AE969884200D9D9
:10506000E861142141436A4840182146FFF795FB47
:10507000F86A2968C96A8842D9D30120D6E701981D
:10508000C0436862029A2868C06A1421414360489C
:10509000405801210128084600D81046AA6A002A73
:1050A000A9D00846FEBDC04670B504460020002CBD
:1050B00024D0564E3168A14201D072B6FEE7A16CF1
:1050C00000291CD0491EA16418D1616CE26A8A4291
:1050D00014D0251D2846FFF728FB606CE0620721ED
:1050E000091AA161F169884200D9F0611421414394
:1050F000474840182946FFF750FB012070BD72B6A3
:10510000FEE7C04670B5C068C568002D0BD02C46C0
:1051100018342046FFF709FB3C4E7069002804D084
:10512000304664300EE072B6FEE72C1D2046FFF7D5
:10513000FCFAE86AF169884200D9F0611421414320
:10514000334840182146FFF728FBE86A3168C96AEE
:10515000884202D90120B06270BD002070BDC046F7
:10516000E4010020F8B5294D686900280CD0FFF74C
:1051700021FB6869401E686168690024002805D029
:10518000FFF722FB2046F8BD72B6FEE7E86800286C
:10519000F6D000271E4E686E00281CD0286FC76806
:1051A00038461830FFF7C1FA3C1D2046FFF7BDFA1C
:1051B000F86AE969884200D9E8611421414370180E
:1051C0002146FFF7EAFAF86A2968C96A8842E2D3F9
:1051D0000120A862DFE7002F01D0FFF78BF8EC6A0F
:1051E000002C09D0FFF7FEFE002801D00120A862A4
:1051F000641EF7D10020E862A86A002803D0FFF7F8
:1052000049FB0124BCE70024BAE7C046E4010020C2
:10521000BC080020FEB51E4602920D460746282017
:10522000FFF7BCF90446002819D02420002121549E
:10523000002D16D008980190FEF776FFA561E66173
:10524000019820622760201DFFF78DFA0298002840
:1052500005D020462430017804220A4302702046FB
:10526000FEBD72B6FEE70000E0B5FEF75DFF09483F
:10527000016800290CD00221001D00910190064810
:1052800006A140220023FFF7DFFD002800D08CBDDF
:1052900072B6FEE75C020020B1430008546D722034
:1052A00053766300BFB5002812D00446114D28681C
:1052B00000280FD001AF16C705290DDCFFF782FECD
:1052C0000146286802290ED1089A01A900230DE0A1
:1052D00072B6FEE700200BE001A900241A4623461F
:1052E000FFF7BAFC04E001A900221346FFF725FCF2
:1052F00004B0B0BD5C02002070B50125ED070400CC
:105300004C4020D4441A01D2001B0919C60D4B0091
:10531000F2B2FF2A29D01B0E2CD000020C02284327
:105320002C43D31ADC40051910D2280A02D3401CA2
:105330006D0611D0761EF6058019FF2A00DA70BDC1
:10534000C00DC00570BD694000F07AF8012005432A
:10535000C541521C761CE8E764089C40C9016140C5
:105360008900E7D10124A043E4E71B0E440200D0EA
:10537000034870BD002AFCD1C00FC00770BD00BF3C
:105380000000C07F70B5420064414B005C41120ECA
:1053900039D01B0E38D0FF2A3CD0FF2B3AD0D21880
:1053A0007F3A40024902400A490A4518ED010600C9
:1053B0004E43000A090A48430104731A4019190CA4
:1053C0004318990F04D05B08012149075B1A521C4E
:1053D000D80904D3401CF50301D19D0607D0FF2A4C
:1053E00008D2D50506D0E4072043401970BD012539
:1053F000A843F4E7002A01DCE00770BD2402FF2087
:105400002043C00570BD1B0EFF2A03D0FF2B01D027
:10541000E00770BDFF2636064500B54206D84D00B0
:10542000B54203D8D218FF2A00D0E7E7004870BD84
:105430000000C07F70B50125ED0704004C4022D468
:10544000441A02D26C40001B0919C60D4B00F2B27F
:10545000FF2A4BD01B0E50D000020C02A8432C4355
:10546000D31ADC40051B05D5AD0019D36D08761E97
:10547000521E37D0F605280A01D2801970BD70413E
:105480006D0603D070BD6940FFF73CFF9C400902E8
:105490006140490001D0401E70BD0124A04370BD91
:1054A0006D081DD001202B0C01D12D0410302B0EC6
:1054B00001D12D0208302B0F01D12D01001DAB0FA2
:1054C00001D1AD00801CEB0F01D16D00401C361ADC
:1054D000121A6D00680AF5054019012A02DB70BD39
:1054E000002070BDC036300AC00770BD1B0E4402DC
:1054F00001D1FF2B00D1024870BD002AF0D070BD51
:105500000000C07F0001010000000102040102044C
:10551000030204030304030303030303030303035A
:105520000403030402030402010402010002010057
:105530000001000000000000000000000100000168
:105540000200000000000000000000000000000059
:10555000000000000000000000000000000000004B
:105560000000000001000000020000000300000035
:105570000400000006000000070000000800000012
:105580000900000000000000000000000000000012
:105590000000000001000000020000000300000005
:1055A0000400000000000000000054545220524546
:1055B0004747455300000C000B0010000F0004008B
:1055C00073746172745461736B004D616368696ECA
:1055D0006520697320696E2069646C65206D6F6455
:1055E000652E0A00456E7465722073657474696E69
:1055F00067206D6F64652E0A007374617274207089
:105600006F77657220766F6C742075706461746555
:105610002E0A004144432043616C696272617469DF
:105620006F6E206572726F722E0A0073657420703F
:105630006C61796572206E756D202B310A00726F76
:1056400074617465206D6F746F722076616C75651E
:105650003A2025640A006F7574206D6F746F722094
:1056600076616C75653A2025640A00626174207663
:10567000616C75653A2025640A004442473A20006F
:105680004C4F473A20001B5B313B33326D001B5BB4
:10569000313B33376D004552523A20001B5B313BA2
:1056A00033316D00544D31363339204B6579202527
:1056B000642072656C65617365642E0A003F065B49
:1056C0004F666D7D077F6F005465726D696E616C0A
:1056D00000000000F85600080000002070010000E3
:1056E000720500084057000870010020201E0000CD
:1056F0002001000800000000D1D201520102175021
:105700005201021650420152043324F405A9030346
:10571000111198080050004001015201A8080050E2
:1057200000800101A30101A4010101A4020101A45F
:10573000030101A404010155AAAAAAAA00000000BD
:04000005080000C12E
:00000001FF
