:020000040800F2
:10000000A81E0020B901000809230008031F0008EA
:1000100000000000000000000000000000000000E0
:100020000000000000000000000000009926000809
:1000300000000000000000001123000861270008F4
:10004000CB01000800000000CB010008CB01000834
:10005000CB010008CB010008CB010008D50C00083B
:1000600000000000690C0008CB010008CB0100086B
:10007000CB010008CB010008CB0100080000000004
:10008000CB0100080000000000000000CB010008C8
:1000900000000000CB010008F5270008CB01000894
:1000A000CB010008CB010008CB010008CB01000800
:1000B000CB0100080000000000000000000000006C
:1000C00000F002F800F04CF812A030C808382418EC
:1000D0002D18AC4201D100F043F80FCCA246AB463C
:1000E0000CA730CF2D1B083F3F197C427F1E544484
:1000F0002D090426F441641EAC4201D300F030F80F
:100100000126334200D0FB1A3343984754465D46DC
:10011000DFE700000C4300002C430000103A02D33C
:1001200078C878C1FAD8520701D330C830C101D598
:1001300004680C6070470000704700000023002432
:1001400000250026103A01D378C1FBD8520700D30E
:1001500030C100D50B6070471FB51FBD10B510BD75
:1001600000F08DF91146FFF7F7FF02F082FF00F073
:10017000A5F903B4FFF7F2FF03BC00F0ABF90000F0
:1001800070B505460C46164602E00FCC0FC5103E72
:10019000102EFAD2082E02D303CC03C5083E042E3B
:1001A00007D301CC01C5361F03E021782970641CF8
:1001B0006D1C761EF9D270BD07488047074800477E
:1001C000FEE7FEE7FEE7FEE7FEE7FEE70448054937
:1001D000054A064B70470000F1270008C1000008DF
:1001E000A8180020A81E0020A81A0020A81A002085
:1001F000034610B50B439B070FD1042A0DD308C843
:1002000010C9121FA342F8D018BA21BA884201D9E6
:10021000012010BD0020C04310BD002A03D0D30729
:1002200003D0521C07E0002010BD03780C78401C5E
:10023000491C1B1B07D103780C78401C491C1B1B55
:1002400001D1921EF1D1184610BDF8B5042A2CD365
:10025000830712D00B78491C0370401C521E830781
:100260000BD00B78491C0370401C521E830704D02E
:100270000B78491C0370401C521E8B079B0F05D046
:10028000C91ADF002023DE1B08C90AE0FFF778FF48
:10029000F8BD1D4608C9FD401C46B4402C4310C0A3
:1002A000121F042AF5D2F308C91A521EF0D40B7893
:1002B000491C0370401C521EEAD40B78491C037081
:1002C000401C012AE4D409780170F8BD01E004C0A3
:1002D000091F0429FBD28B0701D50280801CC907A6
:1002E00000D00270704700290BD0C30702D0027003
:1002F000401C491E022904D3830702D50280801CBA
:10030000891EE3E70022EEE70022DFE7002203096F
:100310008B422CD3030A8B4211D300239C464EE020
:1003200003460B433CD4002243088B4231D30309DC
:100330008B421CD3030A8B4201D394463FE0C3098E
:100340008B4201D3CB01C01A524183098B4201D3A6
:100350008B01C01A524143098B4201D34B01C01A91
:10036000524103098B4201D30B01C01A5241C30809
:100370008B4201D3CB00C01A524183088B4201D378
:100380008B00C01A524143088B4201D34B00C01A64
:100390005241411A00D201465241104670475DE079
:1003A000CA0F00D04942031000D3404253409C463C
:1003B000002203098B422DD3030A8B4212D38901F9
:1003C000FC2212BA030A8B420CD3890192118B4290
:1003D00008D3890192118B4204D389013AD092113A
:1003E00000E08909C3098B4201D3CB01C01A5241F5
:1003F00083098B4201D38B01C01A524143098B42BE
:1004000001D34B01C01A524103098B4201D30B01A6
:10041000C01A5241C3088B4201D3CB00C01A5241CB
:1004200083088B4201D38B00C01A5241D9D24308B2
:100430008B4201D34B00C01A5241411A00D20146EF
:100440005241104663465B1001D34042002B00D559
:100450004942704763465B1000D3404201B50549ED
:10046000002802DC491C084000E00846C046C0469F
:1004700002BD00BFFFFFFF7F7047704770477546A2
:1004800000F024F8AE46050069465346C008C00097
:10049000854618B020B5FFF799FE60BCB646002629
:1004A0000027C0C5C0C5C0C5C0C5C0C5C0C5C0C582
:1004B000C0C5403D490849008D46704710B5044607
:1004C000C046C0462046FFF754FE10BD00487047A6
:1004D0009800002001491820ABBEFEE7260002006C
:1004E00070470000FEB523490024CC630E46283631
:1004F000F48101200290000208871F480090054601
:100500001E491F4A1F4B204F2046B84701F02AFDC5
:1005100000F0EAFB1D49086000951DA1264B20460E
:10052000174F3A46184DA84702F0D4F900F0E0FB07
:10053000164948601048009020A120463A461E4BBC
:10054000A8472F46029D284602F0C2FA0A480090AA
:1005500024A120460A4A184BB8470648C46374745D
:10056000B5730548009025A12046054A124BB847AF
:10057000FEBDC0460000002066430008AF430008EF
:1005800073430008FB430008F52300080002002025
:10059000257325734B657920696E697469616C698F
:1005A0007A6174696F6E20737563636565646564F1
:1005B0002E0A257300000000604300082573257390
:1005C000544D3136333920696E697469616C697ACA
:1005D0006174696F6E207375636365656465642E0D
:1005E0000A25730025732573544D31363339207035
:1005F0006F776572206F6E2E0A2573002573257341
:100600004D616368696E6520697320696E20696455
:100610006C65206D6F64652E0A257300F0B585B09A
:1006200036264F48805D4F490A6849682123CC5CD3
:1006300055784B7E4F7C03974F7A04974F78517AC9
:1006400003290AD1022808D0052806D002200293E7
:1006500001F022FE029B4248805D0528404E00D9F1
:10066000AFE14000784480884000874405000E00D8
:100670004E00AA0153009800F06B3B49884200D21B
:100680009FE1052001F008FE9BE1032C15D0052C0D
:1006900013D0032F11D0052F0FD0032B0DD13848C5
:1006A000009000203149324A324B01F0A3FE28204D
:1006B00001213154042001F0EFFD37462837B87886
:1006C00030717E78F0B20A242146FFF71FFE0546FE
:1006D000F2488570FF78F8B22146FFF717FEEF4920
:1006E00048716543711BED4EF1704443381BB07186
:1006F00030460C30204905242246FFF7A6FDF4744D
:1007000000207074012575705CE1032C50D13720F6
:10071000305C50E0032C01D0032F5AD130462830F2
:1007200031462F310722FFF790FDDD48009000246D
:1007300012490F4A0F4B204601F05CFE0125284666
:1007400001F0AAFD2820305C401E052800D938E1C0
:100750007844007940008744155B6875829DC046E7
:100760000000002000020020B90B000094430008A4
:100770006B4300085A430008CC4200087B43000842
:10078000664300083020315C0D193554E9B2FF2969
:1007900000D1CEE0642900D2CDE00025CAE0C048F7
:1007A00000900020BFA1C74AC74B01F023FE08E11B
:1007B000032D02D1012001F06FFD0020C349B1607B
:1007C000F0605021F1710221717030820520F074C7
:1007D000F7E0032B7AD1B24D00950024CCA1D14A89
:1007E000D14B204601F006FE2826AC4B995D481CF3
:1007F0009855C2B2052A7AD13120185C001F022216
:10080000D243904200D937E1881C9855062034E144
:100810003121705C00197054C2B2FF2A00D193E0FC
:10082000092A00D292E000208FE03220315C0D19BD
:100830003554E9B2FF2900D195E0642900D294E053
:10084000002591E03320315C0D193554E9B2FF29C0
:1008500000D19EE0642900D29DE000259AE0342179
:10086000705C002D03D1401E421E90417054002345
:10087000F3604621717202227270338201280A46A7
:1008800000D01A46F272012800D12D21B1723172C6
:10089000F27194E03521705C002D03D1401E421EA0
:1008A000904170540022F2604621B172A74B33810F
:1008B00002237370328264220128134600D00B4653
:1008C000F372012800D01146F17178E004980328F2
:1008D0001DD12F20305C724900900191002584A128
:1008E000784A794B284601F085FD01242AE7072A3A
:1008F00000D2C2E0694F3846283039462F310722EE
:10090000FFF7A3FCBC553E46009588A111E703986C
:10091000032800D0BEE02F20305C61490090019197
:1009200000256BA1674A684B284601F063FDFF2450
:1009300008E7632535540020B08001217170B07143
:1009400030828448F06019E008207054002131742E
:10095000B17171713171F170022171740121F16015
:10096000B07071702CE0632535540020B0800121F7
:100970007170B071F060032000023082E8B20A2486
:100980002146FFF7C3FCB0704443281BF0700221DE
:1009900016E0632535546E480321717000223282BF
:1009A000B174132189067160B060F260E8B20A2464
:1009B0002146FFF7ABFCB0704443281BF0700521C3
:1009C000F174757801203070707D854208D1304611
:1009D0000C30314620310522FFF70AFC002813D0E5
:1009E00030461630B11C05242246FFF72EFC304657
:1009F0001B30F11D2246FFF728FC7575F068316940
:100A00003062716205B0F0BD032D07D0022D1ED0FB
:100A1000012D2ED1B01C314616311BE0F01D3146A0
:100A20001B310522FFF7E4FB0028D9D1B01C314669
:100A300016310522FFF7DCFB0028D1D12520305CE0
:100A4000717C8142CCD12620305CB17C0AE0F01D63
:100A500031461B310522FFF7CBFB0028C0D12520F2
:100A6000305C717C8142BBD12720305CF17C8142BB
:100A7000B6D100203070B3E70520C0B200900195D8
:100A8000002431490F4A104B204601F0B3FC0125E8
:100A9000024E57E60024012554E6C046000000201F
:100AA00066430008257325734D616368696E652090
:100AB000697320696E2073616665206D6F64652EB1
:100AC0000A257300734300086043000841555345ED
:100AD00025732573636F756E742025642C206368FD
:100AE00065636B626F78202D310A2573000000006A
:100AF00025732573636F756E742025642C206368DD
:100B000065636B626F78202B310A2573000000004B
:100B10002573257353573420636C69636B2E0A2544
:100B2000730000006B4300085A43000825732573C7
:100B30004261636B2069646C65206D6F646520326F
:100B40002E0A257300000000DF430008464600001F
:100B5000462D00000001010080B501F093FA02F07B
:100B6000C3F839200249085CCA6B1018C86380BDFD
:100B70000000002001F006FA01F0D2FEFFF74EFD62
:100B80000A2002F0ADFEF5E7F0B585B016460C463A
:100B9000074602F049FF0546002300930196802294
:100BA0003846214603F038F9074602F03DFF316828
:100BB0000C4A012F09D100940191029503900492EF
:100BC000002018A124A226A308E000940191029518
:100BD00003900492002004A1104A114B01F00AFC7A
:100BE00005B0F0BD66430008257325732573207496
:100BF00061736B206372656174696F6E20666169F1
:100C00006C65642E094865617053697A653A2025E0
:100C100075202D3E2025750A25730000024400082A
:100C2000FC43000825732573257320637265617486
:100C300065642E2068616E646C653A203078257892
:100C40002E094865617053697A653A202575202D13
:100C50003E2025750A2573001B5B313B33376D0041
:100C60004C4F473A2000000080B5024800F0CAFA15
:100C700080BDC0462807002010B504460A48216CF4
:100C800003229143091880306164A0642168FC202C
:100C9000084008381421FFF739FB1F2101400120CB
:100CA0008840E06410BDC0460008024010B5084905
:100CB00042683F2313405A1E0323134001249C40E3
:100CC00092005218403102654165846510BDC046EE
:100CD0000009024080B50120800300F03DFB80BD8B
:100CE000EFF3108072B6FEE7004870474C0000201A
:100CF000004870476C000020F0B589B000250895C9
:100D00005422825C012A01D10224E1E006465436D5
:100D100001243470026893685B0711D404694B683E
:100D2000022B12D1042004438448844250D18248CB
:100D3000C0430B68D9430143906A0840906248E081
:100D4000816D20220A438265C1E00796069304263E
:100D50003443794B794FBC424BD10F683B40906A8A
:100D6000184390623802536983438968014074488C
:100D70000840184350610024002F01D4079EA6E0CC
:100D80000126FA483B46076807208205394611408C
:100D90006C480293834273D1F0053B4603406FD108
:100DA000F24F3B689343194301433960EA480068B6
:100DB000EA49FFF7ABFA0C2141430C310891079E39
:100DC0000898002800D182E00898401E0890F7E7B4
:100DD0000B680024002B7AD5E44801685A4A9342F4
:100DE00069D05A4A934269D0564A93426FD105223C
:100DF00062E0029605951F27069C27400F25009567
:100E00000397BD40046E0195AC4304940F681F42E4
:100E10004DD0FB07059D2C4662D1BB075BD47B07F9
:100E20005BD43B075BD4FB06029C59D4BB066AD457
:100E30007B066AD43B066AD4FB056AD40297BB05DD
:100E400069D4029B5B0568D4029B1B0567D4029B97
:100E5000DB0466D4029B9B0465D4029B5B0464D4D0
:100E6000029F3B04009C059D3AD4FB0360D4029B87
:100E70009B035FD4029F7B03DB1712241C4018E006
:100E80003148029B834202D13006814208D32F4869
:100E9000029B834200D071E7B005074000D06DE7A8
:100EA000B24F3B68934319430143396066E77B00C7
:100EB000DC0E059D14E00322920501E00322D20519
:100EC0001140072292050368934359180160357059
:100ED000204609B0F0BD012402E0022400E0032412
:100EE000039EB440049B1C430466069B9B08C06998
:100EF000984200D836E70198C043936A0340B8008F
:100F0000000FB0402CE70524EAE70624E8E70724B1
:100F1000E6E70824E4E7092408E00A2406E00B24B5
:100F200004E00C2402E00D2400E00E24029FC0E740
:100F30001024FBE71124F9E7FFFF070004000080FD
:100F400000FFFF07001000B0004000B8002000B410
:100F5000F0B587B0044600200690002C5DD00590C7
:100F6000A06D002807D125465435204600F000F931
:100F700000202870E06501273D072668B068C000A2
:100F800012D4B068734901402943B16072480068C7
:100F90007249FFF7BBF94000801C069006980028B4
:100FA00002D00698401EF8E7B068284208D1A06D2C
:100FB00010210143A165E06D012105910843E06521
:100FC000B06804210140A26D10252A405118A16D7E
:100FD00025D163480140891CA165B168C90778D152
:100FE000039527462037216B4A1E91410B03A168C8
:100FF000227E92030A43617EC9031143A27E5003FD
:101000000843E56805431D430120C3072169002902
:101010000490029307DA994306E0012098E02943FF
:10102000A165384694E041050D43387B43002B43CE
:10103000387801280DD1002A08D0A06D2021014365
:10104000A165E06D04990843E06502E0049800049E
:101050000343626A002A06D0072080010240A16A89
:101060001143194300E01946F0683E4A02400A4322
:10107000F2600320820763681D461540E16C387FEB
:1010800001280ED1206C0090676CA06C0190009834
:101090000743019807432F430F43049807433D46F6
:1010A00000E00D4330693049014029433161029825
:1010B0008342039D0DD093420BD004988007834256
:1010C00007D00F208004034028490A688243D018C3
:1010D0000860706907229043676B384370617069DC
:1010E00070218843A16B09010143716121690123CA
:1010F0005805814206D0002913D11949F331B06A4D
:1011000008430DE0B06AE06980001C301C210140FA
:10111000134804920246F3328A40206E1043049A28
:10112000B06270691040B84209D10020E065A06D3E
:101130000121014302208143A165059808E0A06DCB
:10114000284302218843A065E06D1843E0651846F6
:1011500007B0F0BDE8FFFF6F48000020400D03001E
:10116000FDFEFFFF0102DEFF02FCFF1F082701401A
:10117000F0B587B0044600260696059600681D491E
:10118000884234D1012738051B49CA680243CA6026
:10119000CA680240019201980868384308600868EC
:1011A0003840019004960320039002200290019899
:1011B00005200090000702A900F0E4F80F4D2E6210
:1011C0002020B9023A0280230D4F2F60009F6F60EC
:1011D000AE60EE602B616A61A961E861284600F0AB
:1011E00061F8002801D0FFF77BFDAC62256507B0F0
:1011F000F0BDC04600240140341002402807002002
:1012000008000240F8B5016C1C240C40042633464B
:10121000A34023490A1F1768026815683B4201D0A2
:1012200069071DD4034624330226A6403E4201D05E
:10123000A90721D4E740390731D529072FD51168EF
:101240000E25A943116001210A46A240144D2C68C5
:1012500014432C60C16300221A705970416B1BE06B
:101260001168890602D41168B14311600C4A1168F3
:1012700019431160016B0FE01168890605D41168EC
:101280000A24A14311600121597000211970044AF8
:10129000116831431160C16A002900D08847F8BD48
:1012A00004000240FEB500282FD004460146243138
:1012B000022002914870266830682449014031605C
:1012C000234830181421FFF721F880002064A1681A
:1012D00027460C378DCFE5690095256A01950843AF
:1012E0001043184338430099084301990843316873
:1012F000014331602046FFF7BFFC0126B003A1681F
:10130000814204D10020606002E00120FEBD6068DF
:101310003F210140626C1160A16CE26C4A60401E8A
:10132000032809D82046FFF7C1FC206D0021016089
:10133000606DA16D416003E0002020656065A065DF
:101340000020E063029908704E70FEBD0F80FFFF21
:10135000F8FFFDBF70470000B0B50446074D286890
:10136000204203D02C60204600F00AF86868204232
:1013700003D06C602046FFF7EDFFB0BD0C180240B3
:1013800070470000F0B58AB004905C4A904201D0EA
:10139000052000E0032000900023089309931E46D7
:1013A00003910A681046F04000D1A5E001240194A1
:1013B000B440224000D196E00292079603221046E4
:1013C0009840C7434D682E461640701E012805936D
:1013D000069712D8049B98683840CA6805998A40D5
:1013E00002439A60E806C00F079988405A68A243F2
:1013F0001C46059B0243626004E0032E049C01D15D
:1014000016461EE0E0680699084003998A689A40EB
:101410000243E260022E14D11C20089908400F22DA
:1014200082400799CC08A40004990C19266A9643B7
:1014300003990A69824032432262049C4D68032664
:101440002E409E4020680699084030432060A80343
:10145000800F0399079E029D45D0032032468243A8
:1014600027488218166E05200007049B834208D087
:101470002548834207D025488342009F04D1022794
:1014800002E0002700E0019F1820099B18400F246C
:101490008440A6436032874037431760184800688D
:1014A0004A68D30201D5284300E0A843079E144BA5
:1014B00018605868930201D5284300E0A843104BF8
:1014C000586010484068930301D5284300E0A843C2
:1014D000059B0C4C60602068D20301D5284300E0D6
:1014E000A843084A10609B1C0898001D08900998A2
:1014F00008300990761C54E70AB0F0BD000C00508B
:1015000000180240801802400004005000080050FB
:1015100000690840411E88417047002A01D0182206
:1015200000E0282281507047064800687047C04696
:101530000348007803490A68101808607047C046DD
:10154000400000206018002010B501242002B74997
:101550000A6802430A60032000F008F8002802D15C
:1015600000F04EF80024204610BDC046F0B587B00C
:1015700001900127B8041E490A6802430A600968FD
:1015800001400391039803A802A900F039F9069CD1
:1015900000F04EF9174E1849184A32600025B5611F
:1015A000B560F1603561611E8C41A0403949FEF79C
:1015B000ADFE401E7060304600F095FB002814D14F
:1015C0000C4800F0BBFB00280FD1162000F032F8C9
:1015D00001980328384608D81620019C21462A463F
:1015E00000F034F885480460284607B0F0BDC046D6
:1015F0004010024084070020E7030000004801403B
:10160000E0B50B494A68012002434A604A6802403B
:101610000192019A02070B6813430B60096811409D
:1016200000910099C0430321002200F00FF88CBD07
:101630003C100240002805D41F21084001218140B0
:10164000014801607047C04600E100E080B501F04C
:10165000BDFC80BD70B5032569020D4E32688A431A
:101660000243326001214902002488420DD17748AB
:101670000168062048430749FEF748FE801C71694F
:10168000490502D5401EFAD12C46204670BDC04601
:101690000070004040420F00FEB50D4601210028B9
:1016A00000D1A4E001910290604800680724204026
:1016B000A84213D25D490868A043284308604D4EF4
:1016C000FFF732FF0746594800682040A84205D07E
:1016D000FFF72AFFC01BB042F5D987E0029B1868CC
:1016E00081077B4E0CD5410703D5210332680A439D
:1016F00032600F21090232688A43996811433160D0
:10170000C00718D1494800682040A84229D9474954
:101710000868A04328430860364FFFF705FF0646D8
:10172000424800682040A8421BD0FFF7FDFE801B06
:10173000B842F5D95AE05868032830D8810002A28F
:101740005158634A8F46C04659170008A51700082C
:10175000AF170008B917000811460839096849058C
:101760002CE0029A10784007594D05D520032968CE
:101770008143D0680843286000F06CF82968890923
:101780003C220A401C4989581F220A40D0402F4958
:1017900008601A480068FFF7E9FE014627E04C4A56
:1017A000516D0AE0114608390968890306E01146BF
:1017B00008390968890101E0916D8907019916D5F9
:1017C0001168A143014311600A4FFFF7ADFE0646C1
:1017D0003F4800683821014002984068C0008142BB
:1017E00090D0FFF7A1FE801BB842F1D90321084633
:1017F000FEBDC04688130000D4420008440000200B
:10180000B0B507220260324B1C68144044600F24BC
:1018100024021D682540856014031B682340C360B3
:101820000248006810400860B0BDC0460020024079
:101830000648006826490968890A1C220A400449AA
:1018400089581F220A40D0407047C04648000020F7
:101850001443000810B51E4C20688006400F06D0C7
:10186000226838210A401B48082A07D110BD083CCD
:1018700020688004410F1848C84010BD22680A4003
:10188000102A15D1616803220A40032A00D01248A9
:1018900061684906490F491CFEF738FD6168490433
:1018A000490E48436168490F491CFEF72FFD10BDE2
:1018B00020680840202802D10120C00310BD206804
:1018C0000840182801D0002010BD7D20000210BD66
:1018D0000810024000127A000024F400F0B587B02E
:1018E0000125002800D1E7E1049505900078C007A4
:1018F000F34F14D0B96838200840F9680325102840
:1019000002D12940032902D0082800D097E0386886
:10191000800304D505984068002800D180E105982F
:101920000078800724D40598007800070CD5B868A3
:101930003821014018296DD1386E800704D50598EB
:101940008069002800D16BE1059A1078400700D427
:101950003BE1B86838210140202900D082E0F86DD1
:10196000800700D431E19068002800D02DE157E1D4
:10197000B96838200840F9680325102802D12940A9
:10198000022920D000281ED03868059AD168002985
:1019900000D1AFE00721C9028843116901433960D2
:1019A000012001023A680A433A608402FFF7BCFD55
:1019B00006463868204200D0AEE0FFF7B5FD801B38
:1019C0000228F6D978E139684905059B03D5D9681D
:1019D000002900D124E17F2109027A688A435969EC
:1019E00009021143796000280DD10720C00239682F
:1019F000814318690843386038688004400FB14952
:101A0000C140B1480160B1480068FFF7AFFD002850
:101A100089D005E1386E05998969002959D00121DD
:101A200008433866FFF780FD0646386E80078BD482
:101A3000FFF77AFD801B03250228F6D93CE10598C3
:101A40004168012254041004814207D005231B047D
:101A500099426BD191043A680A433A60396801436C
:101A600039606CE0012003900107F86B0840029098
:101A700006D1F86B0843F863F86B084006900698A7
:101A8000019193480068C00513D40398040290495B
:101A9000086820430860FFF747FD06468C48006849
:101AA000204206D1FFF740FD801B03250228F5D90F
:101AB00002E105988068874C012805D005284BD1A4
:101AC000F86D04210143F965F86D03990843F86541
:101AD0004CE0012188433866FFF726FD0646386E44
:101AE000800700D430E7FFF71FFD801B0325022885
:101AF000F5D9E1E001210A02904338608C02FFF73A
:101B000013FD06463868204200D10CE7FFF70CFDB4
:101B1000801B0228F6D9CFE07F200002796881433C
:101B200005984069000208437860FCE63B688343FF
:101B30003B6090043A6882433A60002923D0FFF763
:101B4000F3FC06463868204200D0E8E6FFF7ECFCDC
:101B5000801B6428F6D9AFE0F96D039A9143F965CB
:101B6000F96D04229143F965002819D0FFF7DCFCD8
:101B70000646F86D800720D4FFF7D6FC801B0325AE
:101B8000A042F6D998E0FFF7CFFC0646386820421D
:101B900000D1C4E6FFF7C8FC801B6428F6D98BE0AF
:101BA000FFF7C2FC0646F86D800706D5FFF7BCFCC0
:101BB000801B0325A042F6D97EE002980028059AF2
:101BC00003D1F86B01998843F863D469002C72D073
:101BD000B86838210140102924D1012C20D0F868A0
:101BE00003210140059B1A6A914219D170210140DD
:101BF0005A6A914214D17F21090201409A6A120265
:101C000091420DD11F2149040140DA6A9142049D9D
:101C100052D1072149070840196B88424BD04BE04D
:101C2000049D49E0012529063868049188433860FD
:101C3000FFF77AFC0646022C0BD103956C06386838
:101C4000204211D0FFF770FC801B03250228F6D933
:101C500032E06C063868204229D0FFF765FC801B13
:101C600003250228F6D927E0F8681C490140059EA3
:101C700020366DCE084310431902014329433143F6
:101C8000F960386804990843386003980007F968D8
:101C90000143F960FFF748FC0646386820420AD144
:101CA000FFF742FC801B03250228F6D904E0F86800
:101CB00009490140F9600025284607B0F0BDC0463B
:101CC000001002400024F4004800002044000020DE
:101CD0000070004088130000FCFFFEEF8C80C11FE5
:101CE000704770477047F8B5002823D00446054672
:101CF0003C3507463E37064644366878002804D10E
:101D000000202870204600F017F80220687001CCEF
:101D1000214600F077FD0120307138707870B8707E
:101D2000F8703871787130707070B070F0706870E1
:101D30000020F8BD0120F8BD7047000010B53D211E
:101D4000415C012918D101463D3102220A70016827
:101D5000C86801221043C8600B48814202D00B487A
:101D600081420BD188680A4B03400020062B02D029
:101D70001404A34202D110BD012010BD0868104315
:101D80000860002010BDC046002C01400004004047
:101D90000700010070470000F8B504460068C668F7
:101DA0000769B9074D4D15D5B10713D52946FE3141
:101DB0000161012121778069800703D02046FFF768
:101DC000E9FF05E0204600F08DF8204600F08BF892
:101DD00000202077780717D5700715D52068294689
:101DE000FC3101610221217780698005800F03D0D9
:101DF0002046FFF7CFFF05E0204600F073F82046AD
:101E000000F071F800202077380716D5300714D578
:101E100020682946F831016104212177C0698007D3
:101E200003D02046FFF7B6FF05E0204600F05AF841
:101E3000204600F058F800202077F80617D5F00665
:101E400015D520682946F031016108212177C06944
:101E50008005800F03D02046FFF79CFF05E0204659
:101E600000F040F8204600F03EF800202077F80708
:101E700008D0F00706D020682946FF3101612046CE
:101E800000F032F84120C001074207D0300605D5E6
:101E90002068134901612046FFF723FFF80506D5A6
:101EA000300604D5206805612046FFF719FF780643
:101EB00008D5700606D520682946C0310161204644
:101EC00000F01EF8B80607D5B00605D52068E03545
:101ED00005612046FFF706FFF8BDC046FFFEFFFF85
:101EE0007FDFFFFF7047704780B500680349884275
:101EF00000D080BDFFF71CFB80BDC04600480140FC
:101F00007047FEE705494988401CC0B2401EC140E9
:101F100001220A40504250417047C0460001002053
:101F200080B50146012003291AD819D879440979C6
:101F300049008F4401040A0D0120810301E00120C2
:101F4000C103D348FFF7E4FA80BDCC48042102E086
:101F5000052000070121FFF7DBFA401E411E8841E2
:101F600080BDC04610B500204D49202808D00A1871
:101F70000023937193800124947053700830F4E728
:101F800010BDC04670B54648851D0026042E00D100
:101F900077E0287806286DD8F4B2C04678440079F6
:101FA00040008744030E1B67243D4E002046FFF788
:101FB000B7FF002857D0281F00210170681F01704B
:101FC00058E0A81E0088002854D12046FFF7A8FF3B
:101FD000691F002851D0002028703AE02046FFF702
:101FE0009FFF691F012836D10020287015E0A81E28
:101FF0000088002809D12046FFF792FF002804D16D
:1020000005202870681F042101702046FFF788FF13
:1020100001282FD100202870691F02220A7027E0B2
:10202000A81E008800280CD12046FFF779FF002861
:1020300007D106202870681F05210170281F002184
:1020400001702046FFF76CFF012813D10020287093
:10205000691F08700CE00420287001200870A91E78
:102060007D22120103E001202870A91E03220A80AC
:10207000291F08700835761C88E702202870032085
:10208000F7E770BD00200649202807D00A1893887A
:10209000002B01D05B1E93800830F5E77047C046E7
:1020A0004C000020BFB53C211748002444542C218B
:1020B00001224254C4640621046341638163446283
:1020C0008462C26182760483042108230F4DD20703
:1020D0000560051D1CC504614161039402940194CF
:1020E000FEF736FF002801D0FEF7FAFD03940294B4
:1020F00007480190044801A9FEF7FEFD002801D021
:10210000FEF7EEFDBFBDC046C4060020002401401E
:10211000020000041CB50948016801221143016056
:1021200000681040019001980924032100222046F4
:10213000FFF78CFA2046FFF77DFA1CBD38100240ED
:1021400010B586B001AC06A114222046FEF77DF83A
:102150000021204600F0A1FF0649086006B010BD2E
:10216000504300089D260008000000000000000009
:10217000800000005C080020F0B589B000240894BD
:102180003D4801680222019211430160016811403B
:1021900003910399016804220292114301600168CE
:1021A00011400391039901680125294301600068EA
:1021B00028400390039831483149324E2246B047B7
:1021C00005200707304938462246B04729023846DD
:1021D0002A46B0470794069405952948049004AE12
:1021E00026483146294A904706952120000405904B
:1021F000A803049026483146244A90470694059443
:10220000E803049022483146204A90471F4A069529
:1022100005940495384631469047079406940595F1
:102220001C48049038463146184A90470198079058
:10223000069505953820049038463146134A904754
:1022400006950594029804900C4831460F4A904731
:102250000E4A069405946802049038463146904729
:102260000725032128462246FFF7F0F92846FFF705
:10227000E1F909B0F0BDC04634100240000400503E
:10228000430300001B1500083C08000085130008EC
:102290000008005004090000BFB504460C48014680
:1022A00028318D7BCD738C73042C05D1022D03D086
:1022B0002F300722FDF7C9FF0648009501940290D0
:1022C000002005A10E4A0F4B00F094F8BFBDC04698
:1022D0000000002066430008257325734D61636884
:1022E000696E6520737769746368206D6F64653A01
:1022F000202564092D3E0925642E0A25730000005F
:102300007343000860430008FEE70000000000007F
:10231000EFF309800E4B1A6820381060F0C0444675
:102320004D4656465F46F0C008B572B601F04EFB0A
:1023300062B60CBC116808681030F0C8A046A94607
:10234000B246BB4680F309882038F0C81847C0461B
:102350000401002080B500F011FD80BDF8B51446E1
:102360000D46064622480078532801D000F006FDAD
:10237000EFF31087012181F3108830462946224669
:1023800000F004F887F31088F8BDC046F8B514468D
:102390000D461821414316484618F06A183602289F
:1023A00010D0012815D0002700281ED1304600F09B
:1023B00015FDA04219D330462946224600F0EAFD19
:1023C000274612E030462946224600F0B5FD074672
:1023D0000BE0304600F002FD0746A04200D327463E
:1023E000304629463A4600F0D5FD3846F8BDC0468D
:1023F0000802002082B0E0B50492059304AA01927D
:1024000001AA00F005F88CBC02BC02B0084700002D
:10241000F0B59FB007920E4602901E9000271C97C1
:1024200040201B900AA81A901D9731783046761CE0
:10243000252906D0002900D11AE11AA800F05CFD78
:1024400090E0801C00253178232907D02B2907D064
:102450002D2907D030290AD1022104E0082102E009
:10246000042100E001210D43401C761CEBE7002411
:102470000897302909D3392917D80A2262435418FA
:10248000303C401C7178761CF3E72E290DD10027D3
:102490000921CA4301780B463A3B934207D30A22EB
:1024A0007A435718303F401CF2E7002700E0064609
:1024B000761C0846633809280DD8C0467844007950
:1024C00040008744545A4F4F4F044F4F4F04701CE5
:1024D00031780646EDE708467038082815D8C0461A
:1024E0007844007940008744043D3D1E3D313D3D28
:1024F0001400079A1068011D11600168002008236C
:10250000009301901AA810222AE0252958D05829B2
:1025100028D1079A1068011D116001680094019587
:102520001AA810221BE0079A1068011D11600468A8
:10253000002C00D156A42178002913D01AA800F04D
:10254000DBFC641C1D980028F5D50BE0079A106889
:10255000011D11600168009401951AA80A223B46EA
:1025600000F048FC1D9F002F00D45EE78DE0079A25
:102570001068011D116001785FE7079A1068011D5E
:1025800011600268D01711464140081A0692514264
:102590000491012109910A2805D30A21FDF7B6FE0D
:1025A0000999491CF6E70998B84200D80997002C08
:1025B00009D00698002801D4680705D5641E03E0F9
:1025C0001AA825213AE70024022129400596039103
:1025D00001D0002F13D0E80711D1002C0FD0661EB8
:1025E000A6420CD20998A04209D21AA8202100F0D4
:1025F00083FC1D98089000283446F0D521E0089807
:102600000028059EAED40698002804D4680704D498
:10261000069804900AE02D2102E02B2106980490F0
:102620001AA800F069FC1D9800289BD40398002884
:1026300009D1009401951AA80A2204993B4600F09A
:10264000D9FB059E8EE7012028403843F1D1002CAC
:10265000EFD0661EA642ECD20998A042E9D21AA891
:10266000302100F049FC1D9800283446F1D5E8E7F8
:10267000002F09D01C9D002D04D00AA902982A46DB
:10268000FFF76CFEEF1900E0002738461FB0F0BDE1
:10269000284E554C4C2900007047000082B0FFF7CF
:1026A00059FEFDF71FFF1848009018A001210024D3
:1026B0000A46234601F096FD0546642001F010F914
:1026C000144815A1174E3246FEF75EFA321D164821
:1026D00016A1FEF759FA002D12D001F067FC024650
:1026E000009401212846234601F0C6FD012807D0A9
:1026F00011480090002011A1174A184BFFF77AFEED
:10270000642001F0EDF8FBE7213A000854696D659B
:1027100072000000212D0008544D313633395461C8
:10272000736B0000F8000020750B0008436F6E7398
:102730006F6C655461736B006643000825732573E5
:1027400054696D6572203020737461727420666103
:10275000696C65640A25730002440008FC430008A4
:1027600010B500F0C6FF044601F024FC002803D099
:102770000120000702490860204600F0CFFF10BD8D
:1027800004ED00E0F0B591B004AC201D1821FDF778
:10279000BBFD01277802FEF75DFF780710907804F3
:1027A0000F9008200E9000260D9602250C950B9593
:1027B0004020099008963802079004952046FFF7BC
:1027C0008DF8002803D0EFF3108072B6FEE7039671
:1027D000029607200090019568462946FEF75CFFA7
:1027E000002803D0EFF3108072B6FEE711B0F0BD01
:1027F0007047000080B50248FFF7CEFA80BDC046A2
:1028000084070020B0B504681E4A904204D01E4DD3
:10281000A84206D0234608E070239C434B6823431C
:102820000FE070239C434B682343A84209D0174C08
:10283000A04206D0164CA04203D0164CA0421C4623
:1028400004D103242402A343CC681C4380239C436B
:102850004B69234303608B68C3620B6883629042B9
:1028600005D00B4A904202D00A4A904201D1096930
:102870000163012141610269D20702D002698A43E2
:102880000261B0BD002C0140000400400020004067
:10289000004801400044014010B5002000F021FF35
:1028A000C02000F0FFF91024002C04D0002000F01C
:1028B000D9F9641EF8E7012000F013FF10BD0021D4
:1028C000814206D200BF00BF00BF00BF00BF491C4D
:1028D000F6E7704710B500204649282808D00A18A6
:1028E0000023937193800124947053700830F4E7AF
:1028F0000124204600F0E2FE204600F0F2FE2046D1
:1029000000F0D4FE0220FFF7DAFF402000F0CAF901
:10291000872000F0C7F9FFF7BFFFF248047010BD31
:1029200070B53448851D0026052E61D0287806280C
:102930004ED8F4B2784400794000874403490B49EB
:10294000142D3E002046FFF7DDFA691F002842D013
:1029500000203AE02046FFF7D5FA691F00283ED054
:102960000020287015E0A81E0088002809D1204604
:10297000FFF7C8FA002804D105202870681F042139
:1029800001702046FFF7BEFA002821D000202870F1
:10299000691F02220A7019E0A81E008800280CD1C5
:1029A0002046FFF7AFFA002807D106202870681FDD
:1029B00005210170281F002101702046FFF7A2FAAF
:1029C000002805D000202870691F0870291F087092
:1029D0000835761CA8E7022028700320F7E70420BA
:1029E000287001200870A91E7D2212010A80EDE7DF
:1029F00070BDC0466C000020FEB5019202910090AF
:102A00000024E0B20299884222D2042801D0214653
:102A100000E00321032800D10421CEB20098805D9C
:102A200000F0F0FA07460198855D0F2139406600F5
:102A300030464038C0B200F041F9681E8541E801D7
:102A4000384301093F3EF0B200F038F9641CD8E782
:102A5000402000F027F98A2000F024F9FEBD000094
:102A6000F0B585B014460291019098180490039235
:102A7000E0B20499814222D9042801D0660000E026
:102A80000626032800D1082630464038C0B20399F4
:102A9000611AC9B2029A575C019A515C704A555C3E
:102AA0000F21294000F00AF9781E8741F8012843D8
:102AB00001093F3EF0B200F001F9641CD8E7402064
:102AC00000F0F0F88A2000F0EDF805B0F0BDC04647
:102AD00080B5424242410520000701210902FEF76C
:102AE0001CFD80BDF8B50024204600F0FAFD422010
:102AF00000F0B8F8204600F0E1FD0720C543264667
:102B0000082D21D02F460837002000F0CFFD0220ED
:102B1000FFF7D5FE00F0A6FA0121072F04D8B9402F
:102B2000002806D00E4307E0A940002803D00C433C
:102B300002E08E4300E08C43012000F0B7FD02204C
:102B4000FFF7BDFE6D1CDBE70125284600F0B6FD52
:102B5000284600F0C6FD0D4844700670E0B2F1B2A0
:102B60000902081800210A4A0B4605290CD02C46F8
:102B70008C401688761E0746F7402F407E4226403E
:102B80003343921C491CF0E798B2F8BDC006002000
:102B900046430008F0B587B00193039204900027E4
:102BA0000C98059006910291F8B20699884222D2BB
:102BB000042801D03C4600E00324032800D104246B
:102BC000E5B20498405D00F01DFA06460598455DA3
:102BD0000F213140640020464038C0B200F06EF84A
:102BE000681E8541E801304301093F3CE0B200F036
:102BF00065F87F1CD8E70698019908180490029C94
:102C0000E0B20499814222D9042801D0660000E094
:102C10000626032800D1082630464038C0B206995F
:102C2000611AC9B2059A555C039A515C0C4A575C0B
:102C30000F21394000F042F8681E8541E801384311
:102C400001093F3EF0B200F039F8641CD8E740209B
:102C500000F028F88A2000F025F807B0F0BDC04643
:102C60000A440008F8B504462B4E00273770082F99
:102C700014D2002000F01AFD012522462A4005202A
:102C800000071021FEF749FC284600F00FFD2846FA
:102C9000FFF715FE7F1CE0B24408E8E70120307022
:102CA000F8BDC04610B50446002000F01AFD2046CD
:102CB000FFF7D8FF012000F014FD10BD70B50C46E1
:102CC0000546154E0020307000F00BFD2846FFF73A
:102CD000C9FF2046FFF7C6FF0124204600F001FD92
:102CE000347070BD0001002010B50B4C60780628D0
:102CF00003D3FFF7F7FE608000200421074A2C2948
:102D000006D0535A002B01D05B1E53520831F6E710
:102D100021784018607010BD000100206C00002078
:102D200082B0154C2078002822D0607803280BD080
:102D3000022815D0012819D1E37C627CA01C214611
:102D40000C31FFF78DFE11E0E07CA17C22460C32B5
:102D50000092401AC3B2E01DA21CFFF71BFF05E062
:102D6000E17CE01D22460C32FFF746FE0020207079
:102D70000A2000F0B5FDD5E70000002010B5124C88
:102D8000A8212046FDF7C0FA0320206160610F49A9
:102D9000A1610F48E0610120800220620020A06252
:102DA0006062E06221660B4961661021A1662067BE
:102DB000E066606708490F31102804D00A78225471
:102DC000491E401CF8E710BD080200201544000809
:102DD000C0020020B002002034430008C26801692C
:102DE000914201D9D04302E0D24389188068081883
:102DF00070470000F0B587B0039317460590012691
:102E00000D9D0C9C01910846B84204D33946FDF74C
:102E10007DFA761CF8E706970127039B9E4200D8AF
:102E20001E4628463840002C0496029018D00028F0
:102E300016D12020A90701D4054600E03025002B3B
:102E400000D00546002C0BD0A64209D2059E304684
:102E5000294600F051F8641EF068049E0028F1D560
:102E60000598C06800283DD40094019D039C022C65
:102E700002D3641E069906E028463946FDF746FA55
:102E80000699884201D34F43F1E7059E284639460B
:102E9000FDF73CFA044614A0015D304600F02CF822
:102EA000F068002809D47C432D1B3846069C214637
:102EB000FDF72CFAA7420746E8D202980028049EA4
:102EC00000980FD000280DD0059D441E844209D2E1
:102ED000864207D22021284600F00EF8E868002834
:102EE0002046F2D507B0F0BD3031323334353637B5
:102EF000383941424344454610B504464268836828
:102F0000581C904201D9184606E02268D154A060AE
:102F1000E168491CE1606268904208D1216820693B
:102F2000FFF71CFAA168884202D10020A06010BD02
:102F30000020C043E06010BDFEB516460D46C768D0
:102F4000002101900269BA42029103D9F943541851
:102F5000816803E0F9435218816854184268C91B1C
:102F60008C4200D30C46B44200D33446D0192946D3
:102F70002246FDF76AF9E719019881688F4200D16E
:102F800000270299C760361B2D196118002ED9D170
:102F90000846FEBDF8B5154604464068A268E668D6
:102FA0008019971BBD4204D22A46FDF74EF97519C8
:102FB00009E00E463A46FDF748F9F119ED1B606845
:102FC0002A46FDF742F9E560F8BD0000002805D467
:102FD0000322034693430A4A9A1803E00C22024054
:102FE000064BD2188007C00E8901C9B28140FF2369
:102FF00083401068984308431060704714ED00E068
:1030000000E400E001464139C9B2192901D80EA0F7
:1030100005E001466139C9B2192902D803A0405C14
:1030200070472D384142414188017047777F275EC4
:1030300079475E76061E803880803F7367336D3136
:103040003E8080806E5B0000777F273F79715E76DF
:10305000061E803880803F7367336D313E808080EC
:103060006E5B000080B5052000071021FEF750FAC6
:1030700080BDFEF769FAFFF785FBFFF77DF8FFF7E4
:1030800049F8FFF70FF8FFF75BF800F001F8FEE7EB
:1030900080B500F06DFC002080BD7FB50B46044676
:1030A000028A01684068258903AC01940024842DBC
:1030B000264601D02DB2EE1C009600F0ADFE012890
:1030C00000D1039C204604B070BD0000F8B50E4648
:1030D00005468C4CA7692068001D00F00EFB681C9B
:1030E00008D1002E06D020685034011D204600F083
:1030F0003CFBF8BD7D192068456005D3606B2168F5
:10310000091D00F01BFBF8BD206B2168091D00F0B4
:1031100015FB606A854200D26562F8BD70B500F0AB
:1031200031FB0F4E3068002816D134461434204647
:1031300000F0F7FA35462835284600F0F2FAB46078
:10314000F5600A200C21002200F090FC306000287D
:1031500002D004A100F092FB00F01EFB70BDC0463F
:103160007C010020546D72510000000010B5026C0B
:10317000002A0BD0C3689B18C3608468A34201D3A4
:103180000368C36008461946FDF75FF810BD70B5C7
:1031900015460446026C866B002A18D0002D1DD0FF
:1031A000E068FDF752F8206CE168091AE1602268D6
:1031B000914203D24042A1680818E060701E314677
:1031C0008141A81E424242410A40B61A02E02068EC
:1031D000002811D00020711CA16370BD6068FDF74C
:1031E00034F8206C616809186160A268002091427F
:1031F000F1D321686160EEE7A06800F03DFF002197
:10320000A160E8E710B50446006B00F0D1FA204653
:1032100000F0CEFA10BD00003A4D0E4EA86800280E
:1032200012D000F0AFFAA86CC468201D00F065FA57
:10323000E868401EE860A868401EA86000F0ACFA8C
:103240002046FFF7DFFFE9E730680228E6D300F009
:1032500009FBE3E7D007002070B50F4B1A46183280
:10326000114612688242FBD34D684E19446886426B
:1032700002D164194C6008460519954206D15B6875
:103280009A4203D053681B1943601268026081425E
:1032900000D0086070BDC046B801002010B5416084
:1032A0000061914206D99F4C08349A4208D2994253
:1032B00006D30BE0D11A8269914207D2994C0C34A3
:1032C000011D206800F03AFA002010BD012010BD59
:1032D00010B5044600F056FAA06B4442444100F099
:1032E0005BFA204610BD00000648016B0968002902
:1032F00004D0016BC968C968496801E00021C9436D
:103300004162704704010020FEB5044600F04EFE05
:10331000844D2969884229D201900294A8680168E5
:10332000002925D0C0680668C7683C1D204600F00B
:10333000E4F9396A384688472420385C4007EDD5DF
:10334000B8698019B04206D978603F61A868214603
:1033500000F0F4F9E2E700210091384632460B46CE
:1033600000F08AFF0028D9D172B6FEE7002105E0FF
:10337000E968A960E8600121029C01982861216048
:10338000FEBDC04681B0002000900548006872B6BE
:10339000401C00D0FEE700980028FCD001B0704728
:1033A0009400002086B05F4FB8680568002D02D0F9
:1033B000C068046800E0002400F002FB03A8FFF7E7
:1033C000A3FF06460398002802D000F0B3FE9AE05F
:1033D000002D03D0B44211D9002203E0F868006840
:1033E00042424241A11B386800F058FA00F0A2FEA8
:1033F000002800D087E000F035FA84E000F09AFE63
:10340000B868C068C568281D00F077F92420285CDA
:10341000410705D429462431FE221040087012E0ED
:10342000A8690119284632462346FFF737FF0028CE
:1034300009D000210091284622460B4600F01CFFCF
:10344000002800D16CE0296A284688475BE0039891
:10345000002858D4059C6069002802D0201D00F087
:103460004CF902A8FFF750FF0246039809284AD8F2
:103470007844007940008744040404252B3A04046E
:10348000252B2420215C01230B432354A069049B9A
:10349000C1182046FFF702FF002834D02646243604
:1034A000216A20468847307840072CD5A0690499C6
:1034B00000954218204629462B4600F0DDFE0028E4
:1034C00021D12BE02420215CFE220A4022541AE064
:1034D0002420215C01230B4323540498A06100287D
:1034E0001AD0811820461346FFF7D8FE0BE024209F
:1034F000205C810703D4204600F05AF903E024340D
:10350000FE2108402070386803A900252A4600F0F3
:10351000D2FB00289BD147E772B6FEE772B6FEE702
:1035200072B6FEE77C010020F8B504460546243556
:103530000646443600F026F9777878B201280BDB8E
:103540002868002808D0284600F0C4FD002801D0D3
:1035500000F0E4F97F1EF0E7FF25757000F01CF91C
:1035600000F010F91034377878B201280BDB2068AE
:10357000002808D0204600F0ADFD002801D000F062
:10358000CDF97F1EF0E7357000F006F9F8BD0000B8
:10359000F8B5054600F014FA0120C207974F796884
:1035A000002905D03978002910461DD108461BE0B6
:1035B00000920021F9610722D343324C6207224670
:1035C00001D0E21D1A40BA610603A4191C40083C50
:1035D0007C6021606160A11A51607B681360F960B2
:1035E000B9603870009A10460024284205D000F0D7
:1035F000A1FD600709D072B6FEE7002DF7D068077D
:1036000005D007208543103502E02046F8BD083577
:10361000002DECD0B9688D42E9D800923E461836AC
:10362000BB6932461E465868A84202D23368002B56
:10363000F7D17B689E42DAD0146833681360421B6E
:10364000112A0AD37019410701D072B6FEE7426011
:103650007560FFF701FEB9687068091AB960FA6809
:10366000914200D2F96039780029009A00D10A46C7
:10367000083410430021316070603869401C3861A3
:10368000B5E7C046600800200346083B1960011FEB
:1036900001231B060B6001460C39034B0B600146EE
:1036A00020390A60403870478533000880B50246EB
:1036B000052000070821FDF730FF80BDFEB5002181
:1036C000059104910121039110210191401E414275
:1036D000414102910520000701A9FDF753FE06B004
:1036E00080BD80B50246052000072021FDF715FFAB
:1036F00080BDEFF3108072B67047416882688A60BF
:103700008268516001694B68834200D14A600A684F
:10371000521E0A60002202610868704780F3108818
:1037200070470021016002460832C943426081604F
:10373000C26002617047002101617047B0B50C683A
:10374000621C07D002460832134652681568A5422B
:10375000FAD901E003695A68916008614A608B6098
:1037600059600168491C0160B0BD426893684A60B5
:103770008B60086103685B1C036090684160916026
:103780007047000072B6B8480168491C0160BFF379
:103790004F8FBFF36F8F7047B3480168002903D084
:1037A000491E016002D0704772B6FEE762B67047EC
:1037B00070B5002821D004469D4D2878411E8841CF
:1037C000C007261F3168084205D0083C2268002A3D
:1037D00003D072B6FEE772B6FEE78143316000F0B7
:1037E000EFF83068A9680818A8602046FFF734FD94
:1037F0006869401C686100F09DFC70BDB801002044
:1038000010B5074C00202060A0607D20C100054855
:103810000068FCF77BFD401E60600720206010BD43
:1038200010E000E048000020000000000000000060
:103830000B4A13681868203080F30988022080F34F
:103840001488BFF36F8F3FBCAE4608BC04BC62B6A1
:103850001847C046C046C046C046C046C046C046DF
:10386000040100200120000703490860BFF34F8FC7
:10387000BFF36F8F7047C04604ED00E010B5002223
:10388000054B402A07D09C58002C01D00832F8E79D
:1038900099509918486010BD6418002070B51546FD
:1038A0000E460446FFF76EFF4420215C204644305C
:1038B000FF2901D1002101704178FF2901D10021A8
:1038C0004170FFF769FFA06B002805D12046243026
:1038D00031462A4600F036F82046FFF725FE70BD37
:1038E00080B5002810D04C494A69002A01D072B630
:1038F000FEE74A69521C4A610021FFF7E7FB00F02E
:1039000019FC002800D080BDFFF7ACFF80BDC04689
:1039100041498A6B02608969416070473E480121D4
:103920008162704710B500280AD00C463A490968F0
:103930001831FFF703FF01212046FFF7C7FB10BD39
:1039400072B6FEE7B0B500280FD014460D463249D6
:1039500009681831FFF709FF002C01D00020C5438A
:1039600028462146FFF7B2FBB0BD72B6FEE7C0465F
:10397000BCB5002400940E4D2846203001900D481F
:103980000DA18022234600F047FA012801D100F062
:1039900053FC411C0AD0012807D172B6E04368628B
:1039A00001202861AC6100F045F8BCBD72B6FEE7AD
:1039B000040100201932000849444C450000000071
:1039C00015484169491C41617047C04610B512480D
:1039D0004169002902D00121816210BD002181626C
:1039E000C16914224A430D4B9A181368002B04D165
:1039F00000290FD0143A491EF7E753685B685360FB
:103A0000144608349C4201D15B685360DA68026056
:103A1000C16110BD72B6FEE704010020D00700208E
:103A200080B5FDF799F880BD014880687047C046B1
:103A3000B801002010B5FF2001040A4A13680B43A7
:103A400013600006116801431160FFF7D9FE0648B4
:103A500000240460FFF7ECFEFFF7B8FFFFF792FCCD
:103A6000204610BD20ED00E09400002070B5002835
:103A700016D00D46064648434830FFF789FD0446F8
:103A800000280BD0E6632564002D204601D0204697
:103A9000483020600121204600F004F8204670BD27
:103AA00072B6FEE770B5002820D00D4604460646E3
:103AB0004436FFF767FE0020A063FF2030702168C6
:103AC0007070E06B226C431E504308185343CA18B1
:103AD0006160A060E26020461030002D08D0FFF742
:103AE00020FE24342046FFF71CFE0AE072B6FEE7F3
:103AF0000168002905D000F0EDFA002801D0FFF799
:103B0000B1FEFFF749FE012070BDF0B587B0039309
:103B10000692002812D017460D46044600290FD001
:103B20000398022802D1E06B01285CD100F032FA40
:103B300000280AD1002F08D072B6FEE772B6FEE761
:103B4000206C0028ECD072B6FEE70195264644367C
:103B50002046103002900127FFF714FEE06BA16BA6
:103B6000039A022A41D081423FD30698002850D0C0
:103B7000F80702D004A8FFF7CBFEFFF70DFEFFF712
:103B80001FFFFFF7FFFD3078FF2801D100203070C4
:103B90007078FF2801D100207070FFF7FDFD04A8A8
:103BA00006A900F00DF9002836D1FFF7EBFDE76B11
:103BB000A56BFFF7F1FDBD420ED106990298FFF704
:103BC000B1FE2046FFF7B0FC00F0B4FA0027002851
:103BD000C2D1FFF747FEBFE72046FFF7A5FC00F084
:103BE000A9FA0027B8E772B6FEE720460199039AC2
:103BF000FFF7CDFA616A002903D02434204600F093
:103C000069FA002801D0FFF72DFEFFF7C5FD01205E
:103C100008E0FFF7C1FD04E02046FFF785FC00F057
:103C200089FA002007B0F0BDFEB5002814D01F4669
:103C300014460D460646002910D0022F02D1F06B23
:103C400001282DD1FFF755FDF26BB16B022F0AD081
:103C5000914208D300252AE072B6FEE7306C0028B6
:103C6000EBD072B6FEE7029001944520345CB06B55
:103C7000304629463A46FFF78AFAFF2C12D1706A7D
:103C80000125002812D02436304600F023FA01998D
:103C900000290BD00028029809D001250D6006E00C
:103CA00072B6FEE74536601C307001250298FFF7BA
:103CB00035FD2846FEBDF0B585B0049200280CD035
:103CC00016460D46044600295CD000F063F9002832
:103CD00005D1002E03D072B6FEE772B6FEE700955E
:103CE000264644362046243001900127FFF74AFD3E
:103CF000A56B002D4BD1049800285BD0F80702D0AB
:103D000002A8FFF705FEFFF747FDFFF759FEFFF793
:103D100039FD3078FF2801D1002030707078FF28FD
:103D200001D100207070FFF737FD02A804A900F050
:103D300047F800280BD02046FFF7F6FB00F0FAF911
:103D40002046FFF7C5FA00270028CFD035E02046EF
:103D5000FFF7BEFA00280ED004990198FFF7E2FDA4
:103D60002046FFF7E1FB00F0E5F900270028BDD170
:103D7000FFF778FDBAE72046FFF7D6FB00F0DAF947
:103D80000027B3E7206C00289FD072B6FEE72046DC
:103D90000099FFF7EBF9681EA0632069012700284E
:103DA00009D01034204600F095F9002803D0FFF721
:103DB00059FD00E00027FFF7EFFC384605B0F0BDE5
:103DC000F8B500281DD00E4600291CD00546FFF787
:103DD000D9FCD7488269316800244B1C18D02F6861
:103DE0006B68806BB84201D09A4210D2D21A9142CD
:103DF0000BD9881A3060CE49886B28608869686062
:103E000006E072B6FEE772B6FEE7002030600124DD
:103E1000FFF7C2FC2046F8BDF0B589B007930D4608
:103E2000069096003046FFF7B3FB0024E2430028DB
:103E300000D1A8E0074608925420FFF7A9FB00280C
:103E40001BD00E9A01463431029003460763F019E5
:103E5000071F0726002D059114D00892342044280E
:103E600007D0291834390A781A540978401C0029D7
:103E7000F5D10598C473089A06E03846FFF798FC18
:103E8000089A80E0002008700F980190B7430397CC
:103E90009C64062A00D306225A64DA62029D281D19
:103EA000049008931746FFF746FC18352846FFF79D
:103EB00042FC0898C4647E4008988661059804779F
:103EC000089840620898006103980699079AFFF7DE
:103ED000DBFB089908600198002800D00160FFF71B
:103EE00051FCBE4EF068401CF060306800280AD0DB
:103EF00030690028089A27D1D06A3168C96A81429E
:103F000022D8326020E0089A3260F06801281BD184
:103F1000B34D8C2C04D02819FFF703FC1434F8E7B8
:103F20001A4F1B4C3846A0473D4614352846A0473B
:103F300030466430A04730463C30A04730465030D1
:103F4000A04737637563089A7068401C7060D06A38
:103F5000F169884200D9F06114214143A04840181A
:103F60000499FFF702FCFFF717FC306901220028D3
:103F700009D00898C06A3168C96A814203D21446E0
:103F8000FFF770FC2246104609B0F0BDD8010020B2
:103F90002337000891480169002904D04069414253
:103FA00041414800704701207047C0468B488069F6
:103FB0007047C046FEB5894D6869002804D0E86A9C
:103FC000401CE8620020FEBDA869461CAE610ED30D
:103FD000286B0068002801D072B6FEE7286B696B79
:103FE00029636863A86B401CA863FFF77DF9686AC2
:103FF000864201D200222EE0002001900290286B20
:104000000068002823D0286BC068C768786886429B
:104010001FD33C1D2046FFF770FBB86A002803D071
:1040200038461830FFF769FBF86AE969884200D919
:10403000E861142141436A4840182146FFF795FB87
:10404000F86A2968C96A8842D9D30120D6E701985D
:10405000C0436862029A2868C06A142141436048DC
:10406000405801210128084600D81046AA6A002AB3
:10407000A9D00846FEBDC04670B504460020002CFD
:1040800024D0564E3168A14201D072B6FEE7A16C31
:1040900000291CD0491EA16418D1616CE26A8A42D1
:1040A00014D0251D2846FFF728FB606CE06207212D
:1040B000091AA161F169884200D9F06114214143D4
:1040C000474840182946FFF750FB012070BD72B6E3
:1040D000FEE7C04670B5C068C568002D0BD02C4601
:1040E00018342046FFF709FB3C4E7069002804D0C5
:1040F000304664300EE072B6FEE72C1D2046FFF716
:10410000FCFAE86AF169884200D9F0611421414360
:10411000334840182146FFF728FBE86A3168C96A2E
:10412000884202D90120B06270BD002070BDC04637
:1041300004010020F8B5294D686900280CD0FFF76C
:1041400021FB6869401E686168690024002805D069
:10415000FFF722FB2046F8BD72B6FEE7E8680028AC
:10416000F6D000271E4E686E00281CD0286FC76846
:1041700038461830FFF7C1FA3C1D2046FFF7BDFA5C
:10418000F86AE969884200D9E8611421414370184E
:104190002146FFF7EAFAF86A2968C96A8842E2D339
:1041A0000120A862DFE7002F01D0FFF79DF8EC6A3D
:1041B000002C09D0FFF7FEFE002801D00120A862E4
:1041C000641EF7D10020E862A86A002803D0FFF738
:1041D00049FB0124BCE70024BAE7C04604010020E3
:1041E000D0070020FEB51E4602920D460746282045
:1041F000FFF7CEF90446002819D0242000212154CD
:10420000002D16D008980190FEF788FFA561E661A1
:10421000019820622760201DFFF78DFA0298002880
:1042200005D020462430017804220A43027020463B
:10423000FEBD72B6FEE70000E0B5FEF76FFF0A486C
:10424000016800290DD00221001D0091019001207C
:104250000202064806A10023FFF7DEFD002800D079
:104260008CBD72B6FEE7C0467C010020A533000875
:10427000546D722053766300BFB5002812D00446F7
:10428000114D286800280FD001AF16C705290DDC95
:10429000FFF780FE0146286802290ED1089A01A97D
:1042A00000230DE072B6FEE700200BE001A9002418
:1042B0001A462346FFF7B8FC04E001A90022134682
:1042C000FFF723FC04B0B0BD7C0100200001010019
:1042D00000000000000000000000000000000000DE
:1042E00000000000000000000000000000000000CE
:1042F00000000000010000000200000003000000B8
:104300000400000006000000070000000800000094
:104310000900000000000000000000000000000094
:104320000000000001000000020000000300000087
:1043300004000000000000000000545452205245C8
:104340004747455300000C000B0010000F0004000D
:1043500073746172745461736B004442473A200075
:104360004C4F473A20001B5B306D001B5B313B33E9
:10437000326D001B5B313B33376D00257325734273
:1043800061636B2069646C65206D6F646520312EFC
:104390000A25730025732573456E74657220736555
:1043A0007474696E67206D6F64652E0A257300252D
:1043B0007325730A0A2F2F2F2F2F2F2F2F2F2F2FD9
:1043C0002F2F2F2F2F2F2F2F2F2F2F2F0A73746167
:1043D00072742072756E6E696E672E0A25730025E1
:1043E00073257373657474696E67206974656D20D5
:1043F0006E6578743A2025640A2573004552523A56
:1044000020001B5B313B33316D003F065B4F666D17
:104410007D077F6F005465726D696E616C000000EE
:104420004044000800000020980000001C01000823
:10443000D844000898000020101E00003C0100082D
:10444000000100000000000000000000000000006B
:10445000000000000001000000000000000000005B
:104460000000000000000000000303111100000024
:10447000000000000000000000000000000000003C
:1044800001000000040000000024F400000001000E
:104490000000000001000100000000000200010017
:1044A0000000000003000100000000000000010007
:1044B00000000000010001000000000002000100F7
:1044C00000000000030001000000000004000100E3
:0844D00000000000AAAAAAAA3C
:04000005080000C12E
:00000001FF
