:020000040800F2
:10000000F80B0020B901000861160008A1140008CF
:1000100000000000000000000000000000000000E0
:10002000000000000000000000000000A919000806
:10003000000000000000000063160008AB19000873
:10004000CB01000800000000CB010008CB01000834
:10005000CB010008CB010008CB010008F90400081F
:10006000000000008D040008CB010008CB0100084F
:10007000CB010008CB010008CB0100080000000004
:10008000CB0100080000000000000000CB010008C8
:1000900000000000CB010008CB010008CB010008E4
:1000A000CB010008CB010008CB010008CB01000800
:1000B000CB0100080000000000000000000000006C
:1000C00000F002F800F04CF812A030C808382418EC
:1000D0002D18AC4201D100F043F80FCCA246AB463C
:1000E0000CA730CF2D1B083F3F197C427F1E544484
:1000F0002D090426F441641EAC4201D300F030F80F
:100100000126334200D0FB1A3343984754465D46DC
:10011000DFE700001C1F00003C1F0000103A02D364
:1001200078C878C1FAD8520701D330C830C101D598
:1001300004680C6070470000704700000023002432
:1001400000250026103A01D378C1FBD8520700D30E
:1001500030C100D50B6070471FB51FBD10B510BD75
:1001600000F061F91146FFF7F7FF01F059FE00F0CA
:1001700079F903B4FFF7F2FF03BC00F07FF9000048
:1001800070B505460C46164602E00FCC0FC5103E72
:10019000102EFAD2082E02D303CC03C5083E042E3B
:1001A00007D301CC01C5361F03E021782970641CF8
:1001B0006D1C761EF9D270BD07488047074800477E
:1001C000FEE7FEE7FEE7FEE7FEE7FEE70448054937
:1001D000054A064B704700001F1A0008C1000008BE
:1001E000F8050020F80B0020F8070020F807002091
:1001F000F8B5042A2CD3830712D00B78491C03705E
:10020000401C521E83070BD00B78491C0370401C06
:10021000521E830704D00B78491C0370401C521EE9
:100220008B079B0F05D0C91ADF002023DE1B08C9EE
:100230000AE0FFF7A5FFF8BD1D4608C9FD401C46B2
:10024000B4402C4310C0121F042AF5D2F308C91A77
:10025000521EF0D40B78491C0370401C521EEAD485
:100260000B78491C0370401C012AE4D40978017002
:10027000F8BD01E004C0091F0429FBD28B0701D59A
:100280000280801CC90700D00270704700290BD083
:10029000C30702D00270401C491E022904D3830701
:1002A00002D50280801C891EE3E70022EEE70022CF
:1002B000DFE70000002203098B422CD3030A8B42A4
:1002C00011D300239C464EE003460B433CD400224E
:1002D00043088B4231D303098B421CD3030A8B4260
:1002E00001D394463FE0C3098B4201D3CB01C01A2E
:1002F000524183098B4201D38B01C01A52414309F9
:100300008B4201D34B01C01A524103098B4201D3E6
:100310000B01C01A5241C3088B4201D3CB00C01A53
:10032000524183088B4201D38B00C01A52414308CB
:100330008B4201D34B00C01A5241411A00D20146F0
:100340005241104670475DE0CA0F00D04942031089
:1003500000D3404253409C46002203098B422DD3D8
:10036000030A8B4212D38901FC2212BA030A8B4280
:100370000CD3890192118B4208D3890192118B42CF
:1003800004D389013AD0921100E08909C3098B4254
:1003900001D3CB01C01A524183098B4201D38B0197
:1003A000C01A524143098B4201D34B01C01A52413A
:1003B00003098B4201D30B01C01A5241C3088B427F
:1003C00001D3CB00C01A524183088B4201D38B006A
:1003D000C01A5241D9D243088B4201D34B00C01AF4
:1003E0005241411A00D201465241104663465B1009
:1003F00001D34042002B00D54942704763465B1051
:1004000000D3404201B50549002802DC491C0840E0
:1004100000E00846C046C04602BD00BFFFFFFF7FA8
:10042000704770477047754600F024F8AE460500E7
:1004300069465346C008C000854618B020B5FFF78E
:10044000C5FE60BCB64600260027C0C5C0C5C0C5F5
:10045000C0C5C0C5C0C5C0C5C0C5403D49084900EC
:100460008D46704710B50446C046C0462046FFF78B
:1004700080FE10BD00487047100000200149182080
:10048000ABBEFEE7260002007047000080B50248C0
:1004900000F0C2FA80BDC0469005002010B50446A9
:1004A0000A48216C03229143091880306164A064DA
:1004B0002168FC20084008381421FFF7FBFE1F21AB
:1004C000014001208840E06410BDC04600080240A1
:1004D00010B5084942683F2313405A1E03231340B6
:1004E00001249C40920052184031026541658465A8
:1004F00010BDC0460009024080B50120800300F015
:1005000045FB80BDEFF3108072B6FEE7F0B589B011
:10051000002508955422825C012A01D10224E1E0E1
:100520000646543601243470026893685B0711D480
:1005300004694B68022B12D104200443844884428E
:1005400050D18248C0430B68D9430143906A0840A8
:10055000906248E0816D20220A438265C1E00796DF
:10056000069304263443794B794FBC424BD10F6834
:100570003B40906A1843906238025369834389680C
:10058000014074480840184350610024002F01D4F2
:10059000079EA6E00126FA483B4607680720820529
:1005A000394611406C480293834273D1F0053B46B3
:1005B00003406FD1F24F3B689343194301433960C5
:1005C000EA480068EA49FFF775FE0C2141430C3107
:1005D0000891079E0898002800D182E00898401EE4
:1005E0000890F7E70B680024002B7AD5E4480168EF
:1005F0005A4A934269D05A4A934269D0564A934222
:100600006FD1052262E0029605951F27069C2740C0
:100610000F2500950397BD40046E0195AC430494EB
:100620000F681F424DD0FB07059D2C4662D1BB07CA
:100630005BD47B075BD43B075BD4FB06029C59D49D
:10064000BB066AD47B066AD43B066AD4FB056AD42F
:100650000297BB0569D4029B5B0568D4029B1B050E
:1006600067D4029BDB0466D4029B9B0465D4029B87
:100670005B0464D4029F3B04009C059D3AD4FB03B9
:1006800060D4029B9B035FD4029F7B03DB17122481
:100690001C4018E03148029B834202D1300681425F
:1006A00008D32F48029B834200D071E7B005074072
:1006B00000D06DE7B24F3B68934319430143396063
:1006C00066E77B00DC0E059D14E00322920501E045
:1006D0000322D2051140072292050368934359185B
:1006E00001603570204609B0F0BD012402E002240B
:1006F00000E00324039EB440049B1C430466069B55
:100700009B08C069984200D836E70198C043936AB5
:100710000340B800000FB0402CE70524EAE70624A8
:10072000E8E70724E6E70824E4E7092408E00A24C8
:1007300006E00B2404E00C2402E00D2400E00E246B
:10074000029FC0E71024FBE71124F9E7FFFF070031
:100750000400008000FFFF07001000B0004000B858
:10076000002000B4F0B587B0044600200690002CAD
:100770005DD00590A06D002807D125465435204650
:1007800000F000F900202870E06501273D07266889
:10079000B068C00012D4B068734901402943B16009
:1007A000724800687249FFF785FD4000801C069082
:1007B0000698002802D00698401EF8E7B068284244
:1007C00008D1A06D10210143A165E06D01210591C3
:1007D0000843E065B06804210140A26D10252A405D
:1007E0005118A16D25D163480140891CA165B168EC
:1007F000C90778D1039527462037216B4A1E9141BE
:100800000B03A168227E92030A43617EC903114350
:10081000A27E50030843E56805431D430120C3073A
:10082000216900290490029307DA994306E0012028
:1008300098E02943A165384694E041050D43387B93
:1008400043002B43387801280DD1002A08D0A06D31
:1008500020210143A165E06D04990843E06502E0B1
:10086000049800040343626A002A06D0072080012E
:100870000240A16A1143194300E01946F0683E4A5C
:1008800002400A43F2600320820763681D46154058
:10089000E16C387F01280ED1206C0090676CA06C51
:1008A000019000980743019807432F430F43049892
:1008B00007433D4600E00D4330693049014029437C
:1008C000316102988342039D0DD093420BD004986E
:1008D0008007834207D00F208004034028490A681C
:1008E0008243D0180860706907229043676B3843D1
:1008F0007061706970218843A16B090101437161C6
:10090000216901235805814206D0002913D11949D4
:10091000F331B06A08430DE0B06AE06980001C3032
:100920001C210140134804920246F3328A40206E93
:100930001043049AB06270691040B84209D1002097
:10094000E065A06D0121014302208143A165059866
:1009500008E0A06D284302218843A065E06D18439C
:10096000E065184607B0F0BDE8FFFF6F0C000020FF
:10097000400D0300FDFEFFFF0102DEFF02FCFF1F32
:1009800008270140F0B587B0044600260696059674
:1009900000681D49884234D1012738051B49CA68BF
:1009A0000243CA60CA68024001920198086838434D
:1009B00008600868384001900496032003900220E4
:1009C0000290019805200090000702A900F0F4F8B9
:1009D0000F4D2E622020B9023A0280230D4F2F6066
:1009E000009F6F60AE60EE602B616A61A961E86193
:1009F000284600F061F8002801D0FFF783FDAC62C3
:100A0000256507B0F0BDC046002401403410024007
:100A10009005002008000240F8B5016C1C240C4031
:100A200004263346A34023490A1F17680268156845
:100A30003B4201D069071DD4034624330226A64059
:100A40003E4201D0A90721D4E740390731D5290713
:100A50002FD511680E25A943116001210A46A24035
:100A6000144D2C6814432C60C16300221A70597015
:100A7000416B1BE01168890602D41168B143116013
:100A80000C4A116819431160016B0FE01168890667
:100A900005D411680A24A143116001215970002175
:100AA0001970044A116831431160C16A002900D0ED
:100AB0008847F8BD04000240FEB500282FD0044648
:100AC000014624310220029148702668306824498A
:100AD00001403160234830181421FFF7EBFB800000
:100AE0002064A16827460C378DCFE5690095256AFB
:100AF000019508431043184338430099084301996E
:100B000008433168014331602046FFF7C7FC0126E6
:100B1000B003A168814204D10020606002E001209E
:100B2000FEBD60683F210140626C1160A16CE26C07
:100B30004A60401E032809D82046FFF7C9FC206DF3
:100B400000210160606DA16D416003E0002020651F
:100B50006065A0650020E063029908704E70FEBDDC
:100B60000F80FFFFF8FFFDBFB0B5044600F0F6F8B8
:100B70000546601C02D099480078041900F0EEF890
:100B8000401BA042FAD3B0BD70470000B0B5044688
:100B9000074D2868204203D02C60204600F00AF858
:100BA0006868204203D06C602046FFF7EDFFB0BDBF
:100BB0000C18024070470000F0B58AB004905C4AFF
:100BC000904201D0052000E003200090002308930C
:100BD00009931E4603910A681046F04000D1A5E033
:100BE00001240194B440224000D196E0029207967D
:100BF000032210469840C7434D682E461640701E8B
:100C000001280593069712D8049B98683840CA6853
:100C100005998A4002439A60E806C00F0799884008
:100C20005A68A2431C46059B0243626004E0032EFF
:100C3000049C01D116461EE0E0680699084003991D
:100C40008A689A400243E260022E14D11C2008995F
:100C500008400F2282400799CC08A40004990C197F
:100C6000266A964303990A69824032432262049CB1
:100C70004D6803262E409E40206806990840304368
:100C80002060A803800F0399079E029D45D0032092
:100C90003246824327488218166E05200007049BBF
:100CA000834208D02548834207D025488342009FCD
:100CB00004D1022702E0002700E0019F1820099BD1
:100CC00018400F248440A6436032874037431760A2
:100CD000184800684A68D30201D5284300E0A843B9
:100CE000079E144B18605868930201D5284300E012
:100CF000A843104B586010484068930301D528431F
:100D000000E0A843059B0C4C60602068D20301D52D
:100D1000284300E0A843084A10609B1C0898001D67
:100D20000890099808300990761C54E70AB0F0BD85
:100D3000000C0050001802408018024000040050CF
:100D40000008005000690840411E88417047002A91
:100D500001D0182200E02822815070470548006821
:100D60007047C0461D48007802490A68101808609C
:100D70007047C046F005002010B5012420029349B9
:100D80000A6802430A60032000F008F8002802D134
:100D900000F026F80024204610BDC04670B50F4E66
:100DA00031780124002916D005467D20C000FFF7C8
:100DB00081FA014688480068FFF77CFA00F056FB8C
:100DC000032D08D8002806D10024E04329462246F6
:100DD00000F028F87560204670BDC0460400002071
:100DE00082B00948416801221143416041681140C5
:100DF00001910199110702680A43026000680840E6
:100E00000090009802B070473C100240002805D4C2
:100E10001F21084001218140014801607047C04600
:100E200000E100E080B500F0D7FF80BD70B503257C
:100E300069020D4E32688A43024332600121490241
:100E4000002488420DD164480168062048430749C0
:100E5000FFF730FA801C7169490502D5401EFAD1AE
:100E60002C46204670BDC0460070004040420F0036
:100E7000FEB50D460121002800D1A4E001910290A9
:100E80005248006807242040A84213D24F490868FE
:100E9000A043284308604E4EFFF760FF07464B48CB
:100EA00000682040A84205D0FFF758FFC01BB042A1
:100EB000F5D987E0029B18688107684E0CD5410779
:100EC00003D5210332680A4332600F2109023268D8
:100ED0008A43996811433160C00718D13B480068C4
:100EE0002040A84229D939490868A043284308600E
:100EF000374FFFF733FF0646344800682040A842CA
:100F00001BD0FFF72BFF801BB842F5D95AE0586879
:100F1000032830D8810002A25158504A8F46C0465B
:100F2000310F00087D0F0008870F0008910F00089F
:100F300011460839096849052CE0029A10784007E3
:100F4000464D05D5200329688143D06808432860B1
:100F500000F046F8296889093C220A401D49895851
:100F60001F220A40D0401C4908601C480068FFF757
:100F700015FF014627E0394A516D0AE0114608394C
:100F80000968890306E0114608390968890101E00A
:100F9000916D8907019916D51168A143014311602C
:100FA0000B4FFFF7DBFE06462C4800683821014056
:100FB00002984068C000814290D0FFF7CFFE801BAE
:100FC000B842F1D903210846FEBDC04600200240C8
:100FD00088130000B81F00080C0000200800002043
:100FE00010B51E4C20688006400F06D022683821BC
:100FF0000A401B48082A07D110BD083C206880041D
:10100000410F1848C84010BD22680A40102A15D167
:10101000616803220A40032A00D012486168490629
:10102000490F491CFFF746F961684904490E4843D6
:101030006168490F491CFFF73DF910BD2068084061
:10104000202802D10120C00310BD206808401828C4
:1010500001D0002010BD7D20000210BD081002400C
:1010600000127A000024F400F0B587B001250028B2
:1010700000D1E7E1049505900078C007F34F14D044
:10108000B96838200840F9680325102802D12940A2
:10109000032902D0082800D097E03868800304D5DF
:1010A00005984068002800D180E105980078800705
:1010B00024D40598007800070CD5B8683821014081
:1010C00018296DD1386E800704D5059880690028ED
:1010D00000D16BE1059A1078400700D43BE1B86875
:1010E00038210140202900D082E0F86D800700D42B
:1010F00031E19068002800D02DE157E1B96838202F
:101100000840F9680325102802D12940022920D07F
:1011100000281ED03868059AD168002900D1AFE0B8
:101120000721C90288431169014339600120010286
:101130003A680A433A608402FFF710FE06463868B0
:10114000204200D0AEE0FFF709FE801B0228F6D94E
:1011500078E139684905059B03D5D968002900D194
:1011600024E17F2109027A688A43596909021143FF
:10117000796000280DD10720C002396881431869C1
:101180000843386038688004400FB149C140B14815
:101190000160B1480068FFF701FE002889D005E131
:1011A000386E05998969002959D0012108433866AC
:1011B000FFF7D4FD0646386E80078BD4FFF7CEFDCF
:1011C000801B03250228F6D93CE1059841680122DD
:1011D00054041004814207D005231B0499426BD1AB
:1011E00091043A680A433A603968014339606CE017
:1011F000012003900107F86B0840029006D1F86BBC
:101200000843F863F86B08400690069801919348EC
:101210000068C00513D4039804029049086820436D
:101220000860FFF79BFD06468C480068204206D107
:10123000FFF794FD801B03250228F5D902E10598EC
:101240008068874C012805D005284BD1F86D042112
:101250000143F965F86D03990843F8654CE00121F5
:1012600088433866FFF77AFD0646386E800700D45B
:1012700030E7FFF773FD801B03250228F5D9E1E075
:1012800001210A02904338608C02FFF767FD064691
:101290003868204200D10CE7FFF760FD801B022870
:1012A000F6D9CFE07F200002796881430598406934
:1012B000000208437860FCE63B6883433B6090048F
:1012C0003A6882433A60002923D0FFF747FD06467B
:1012D0003868204200D0E8E6FFF740FD801B642814
:1012E000F6D9AFE0F96D039A9143F965F96D0422DF
:1012F0009143F965002819D0FFF730FD0646F86DD7
:10130000800720D4FFF72AFD801B0325A042F6D9D1
:1013100098E0FFF723FD06463868204200D1C4E676
:10132000FFF71CFD801B6428F6D98BE0FFF716FD44
:101330000646F86D800706D5FFF710FD801B0325D4
:10134000A042F6D97EE002980028059A03D1F86BF6
:1013500001998843F863D469002C72D0B8683821A9
:101360000140102924D1012C20D0F868032101402C
:10137000059B1A6A914219D1702101405A6A914223
:1013800014D17F21090201409A6A120291420DD1C3
:101390001F2149040140DA6A9142049D52D107217C
:1013A00049070840196B88424BD04BE0049D49E047
:1013B000012529063868049188433860FFF7CEFC80
:1013C0000646022C0BD103956C063868204211D0DA
:1013D000FFF7C4FC801B03250228F6D932E06C0617
:1013E0003868204229D0FFF7B9FC801B032502286A
:1013F000F6D927E0F8681C490140059E20366DCEDD
:10140000084310431902014329433143F960386806
:1014100004990843386003980007F9680143F960AC
:10142000FFF79CFC0646386820420AD1FFF796FC7D
:10143000801B03250228F6D904E0F8680949014019
:10144000F9600025284607B0F0BDC04600100240F4
:101450000024F4000C000020080000200070004070
:1014600088130000FCFFFEEF8C80C11F401E010EA0
:1014700001D0012070470749074A506007480368B8
:101480000B40032189075918016000209060072153
:1014900011607047FFFFFF0010E000E020ED00E06A
:1014A000FEE70000BFB53C211748002444542C211E
:1014B00001224254C464062104634163816344628F
:1014C0008462C26182760483042108230F4DD2070F
:1014D0000560051D1CC504614161039402940194DB
:1014E000FFF740F9002801D0FFF70CF803940294AD
:1014F00007480190044801A9FFF708F8002801D027
:10150000FFF700F8BFBDC0462C05002000240140B5
:10151000020000041CB50948016801221143016062
:1015200000681040019001980924002120460A46D5
:10153000FFF778FC2046FFF769FC1CBD381002401D
:10154000F0B589B0002408943D4801680222019258
:10155000114301600168114003910399016804225D
:1015600002921143016001681140039103990168DF
:101570000125294301600068284003900398314801
:101580003149324E2246B0470520070730493846D8
:101590002246B047290238462A46B04707940694A7
:1015A00005952948049004AE26483146294A9047BB
:1015B0000695212000040590A80304902648314692
:1015C000244A904706940594E80304902248314643
:1015D000204A90471F4A069505940495384631469F
:1015E00090470794069405951C4804903846314668
:1015F000184A904701980790069505953820049061
:1016000038463146134A904706950594029804904F
:101610000C4831460F4A90470E4A069405946802DA
:1016200004903846314690470725284621462246F1
:10163000FFF7F8FB2846FFF7E9FB09B0F0BDC0460D
:101640003410024000040050430300004F0D000816
:101650003C080000B90B0008000800500409000015
:10166000FEE7704780B500F08FFA80BDF8B51446EC
:101670000D46064622480078532801D000F084FA2F
:10168000EFF31087012181F3108830462946224666
:1016900000F004F887F31088F8BDC046F8B514468A
:1016A0000D461821414316484618F06A183602289C
:1016B00010D0012815D0002700281ED1304600F098
:1016C00093FAA04219D330462946224600F068FB1F
:1016D000274612E030462946224600F033FB0746F3
:1016E0000BE0304600F080FA0746A04200D32746C0
:1016F000304629463A4600F053FB3846F8BDC0460E
:101700007000002082B0E0B50492059304AA019213
:1017100001AA00F005F88CBC02BC02B0084700002A
:10172000F0B59FB007920E4602901E9000271C97BE
:1017300040201B900AA81A901D9731783046761CDD
:10174000252906D0002900D11AE11AA800F0DAFAFA
:1017500090E0801C00253178232907D02B2907D061
:101760002D2907D030290AD1022104E0082102E006
:10177000042100E001210D43401C761CEBE700240E
:101780000897302909D3392917D80A2262435418F7
:10179000303C401C7178761CF3E72E290DD10027D0
:1017A0000921CA4301780B463A3B934207D30A22E8
:1017B0007A435718303F401CF2E7002700E0064606
:1017C000761C0846633809280DD8C046784400794D
:1017D00040008744545A4F4F4F044F4F4F04701CE2
:1017E00031780646EDE708467038082815D8C04617
:1017F0007844007940008744043D3D1E3D313D3D25
:101800001400079A1068011D116001680020082368
:10181000009301901AA810222AE0252958D05829AF
:1018200028D1079A1068011D116001680094019584
:101830001AA810221BE0079A1068011D11600468A5
:10184000002C00D156A42178002913D01AA800F04A
:1018500059FA641C1D980028F5D50BE0079A10680A
:10186000011D11600168009401951AA80A223B46E7
:1018700000F0C6F91D9F002F00D45EE78DE0079AA7
:101880001068011D116001785FE7079A1068011D5B
:1018900011600268D01711464140081A0692514261
:1018A0000491012109910A2805D30A21FEF702FDBE
:1018B0000999491CF6E70998B84200D80997002C05
:1018C00009D00698002801D4680705D5641E03E0F6
:1018D0001AA825213AE70024022129400596039100
:1018E00001D0002F13D0E80711D1002C0FD0661EB5
:1018F000A6420CD20998A04209D21AA8202100F0D1
:1019000001FA1D98089000283446F0D521E0089887
:101910000028059EAED40698002804D4680704D495
:10192000069804900AE02D2102E02B2106980490ED
:101930001AA800F0E7F91D9800289BD40398002806
:1019400009D1009401951AA80A2204993B4600F097
:1019500057F9059E8EE7012028403843F1D1002C2D
:10196000EFD0661EA642ECD20998A042E9D21AA88E
:10197000302100F0C7F91D9800283446F1D5E8E77A
:10198000002F09D01C9D002D04D00AA902982A46D8
:10199000FFF76CFEEF1900E0002738461FB0F0BDDE
:1019A000284E554C4C290000704780B5FFF7DAF9F6
:1019B00080BDF0B591B004AC201D1821FEF777FC76
:1019C00001277802FFF732FA7807109078040F9019
:1019D00008200E9000260D9602250C950B954020B0
:1019E000099008963802079004952046FFF73CFBC3
:1019F000002803D0EFF3108072B6FEE7039602963C
:101A000007200090019568462946FFF731FA002823
:101A100003D0EFF3108072B6FEE711B0F0BD70474F
:101A200010B5002000F0C0FAC02000F0A0F810248B
:101A3000002C04D0002000F07FF8641EF8E701209D
:101A400000F0B2FA10BD10B50124204600F099FA5A
:101A5000204600F0A9FA204600F08BFA0220FFF79A
:101A600083F8402000F083F8872000F080F8FFF72B
:101A7000D7FF10BD80B54242424105200007012139
:101A80000902FFF764F980BDF8B50024204600F094
:101A90008BFA422000F050F8204600F072FA07203E
:101AA000C5432646082D21D02F460837002000F0D8
:101AB00060FA0220FFF758F800F0AAF90121072F79
:101AC00004D8B940002806D00E4307E0A9400028FA
:101AD00003D00C4302E08E4300E08C43012000F071
:101AE00048FA0220FFF740F86D1CDBE70125284685
:101AF00000F047FA284600F057FA0D484470067087
:101B0000E0B2F1B20902081800210A4A0B46052981
:101B10000CD02C468C401688761E0746F7402F4086
:101B20007E4226403343921C491CF0E798B2F8BD30
:101B3000280500200A20000870B504460026082E5B
:101B400014D2002000F015FA012522462A40052073
:101B500000071021FFF7FBF8284600F00AFA284694
:101B6000FFF702F8761CE0B24408E8E770BD10B554
:101B70000446002000F018FA2046FFF7DDFF0120A0
:101B800000F012FA10BD000010B5124CA82120463A
:101B9000FEF78DFB0320206160610F49A1610F48B2
:101BA000E0610120800220620020A0626062E062A9
:101BB00021660B4961661021A1662067E0666067B7
:101BC00008490F31102804D00A782254491E401CBD
:101BD000F8E710BD70000020272000082801002031
:101BE00018010020F81F0008C2680169914201D95C
:101BF000D04302E0D243891880680818704700007B
:101C0000F0B587B003931746059001260D9D0C9CF7
:101C100001910846B84204D33946FEF74BFB761CC7
:101C2000F8E706970127039B9E4200D81E462846E8
:101C30003840002C0496029018D0002816D120209D
:101C4000A90701D4054600E03025002B00D0054649
:101C5000002C0BD0A64209D2059E3046294600F042
:101C600051F8641EF068049E0028F1D50598C068FC
:101C700000283DD40094019D039C022C02D3641ED5
:101C8000069906E028463946FEF714FB0699884275
:101C900001D34F43F1E7059E28463946FEF70AFB7C
:101CA000044614A0015D304600F02CF8F0680028CE
:101CB00009D47C432D1B3846069C2146FEF7FAFAD0
:101CC000A7420746E8D202980028049E00980FD049
:101CD00000280DD0059D441E844209D2864207D2B9
:101CE0002021284600F00EF8E86800282046F2D5AA
:101CF00007B0F0BD303132333435363738394142F0
:101D00004344454610B5044642688368581C9042D7
:101D100001D9184606E02268D154A060E168491C48
:101D2000E1606268904208D121682069FFF79EFC5B
:101D3000A168884202D10020A06010BD0020C043ED
:101D4000E06010BDFEB516460D46C7680021019043
:101D50000269BA42029103D9F9435418816803E039
:101D6000F9435218816854184268C91B8C4200D349
:101D70000C46B44200D33446D01929462246FEF719
:101D800037FAE719019881688F4200D1002702993C
:101D9000C760361B2D196118002ED9D10846FEBD2B
:101DA000F8B5154604464068A268E6688019971B96
:101DB000BD4204D22A46FEF71BFA751909E00E4609
:101DC0003A46FEF715FAF119ED1B60682A46FEF750
:101DD0000FFAE560F8BD0000002805D40322034691
:101DE00093430A4A9A1803E00C220240064BD21889
:101DF0008007C00E8901C9B28140FF23834010686B
:101E0000984308431060704714ED00E000E400E0E0
:101E100080B5052000071021FEF794FF80BD00006B
:101E200084B0FEF7A9FFFFF7C4FDFFF789FBFFF7BA
:101E300071FBFFF737FBFFF715FC214C00940025E1
:101E400020A12C4E2C4B2D4F28463246B847FFF789
:101E5000FAFD00942AA1314B28463246B8470120AA
:101E60000390FFF707FE00942DA1284632462B4B26
:101E7000B847334C38A73AA5039EB1032E48FEF766
:101E800061FF2E490870F1032B48FEF75BFF2B49D9
:101E90004870FFF7F9FD2080062EEDD02088F1B2C2
:101EA00000F062F8012808D1009605480190002052
:101EB00024A13A462B46FFF725FC761CECE7C046EA
:101EC0001A200008257325730A0A2F2F2F2F2F2F72
:101ED0002F2F2F2F2F2F2F2F2F2F2F2F2F2F2F2F12
:101EE0002F0A73746172742072756E6E696E672E3C
:101EF0000A2573001F200008262000080517000887
:101F000025732573544D3136333920696E69742039
:101F1000646F6E652E0A257300000000142000080F
:101F200025732573544D3136333920706F776572C0
:101F3000206F6E2E0A25730000080050000000205C
:101F4000EC050020257325736B65795B25645D20A6
:101F5000646F776E0A2573001B5B313B33326D0073
:101F60004442473A20000000491EC8400121084071
:101F7000704780B50246052000070821FEF7E7FEFE
:101F800080BDFEB50021059104910121039110212E
:101F90000191401E4142414102910520000701A9E3
:101FA000FEF70AFE06B080BD80B502460520000798
:101FB0002021FEF7CCFE80BD0000000000000000E4
:101FC0000000000000000000000000000000000011
:101FD00000000000000000000100000002000000FE
:101FE00003000000040000000600000007000000DD
:101FF0000800000009000000000000000000545428
:10200000522052454747455300000C000B0010007A
:102010000F0004004C4F473A20001B5B306D001B43
:102020005B313B33376D005465726D696E616C00D6
:102030005020000800000020100000001C010008D3
:102040006020000810000020E80B00003C010008A0
:102050000101000001000000040000000024F40061
:04000005080000C12E
:00000001FF
